{
  "_format": "hh-sol-artifact-1",
  "contractName": "MerkleTree",
  "sourceName": "contracts/MerkleTree.sol",
  "abi": [
    {
      "inputs": [
        {
          "internalType": "string[4]",
          "name": "transactions",
          "type": "string[4]"
        }
      ],
      "name": "generateTree",
      "outputs": [],
      "stateMutability": "nonpayable",
      "type": "function"
    },
    {
      "inputs": [],
      "name": "getRoot",
      "outputs": [
        {
          "internalType": "bytes32",
          "name": "",
          "type": "bytes32"
        }
      ],
      "stateMutability": "view",
      "type": "function"
    },
    {
      "inputs": [
        {
          "internalType": "uint256",
          "name": "",
          "type": "uint256"
        }
      ],
      "name": "hashes",
      "outputs": [
        {
          "internalType": "bytes32",
          "name": "",
          "type": "bytes32"
        }
      ],
      "stateMutability": "view",
      "type": "function"
    }
  ],
  "bytecode": "0x608060405234801561001057600080fd5b50610c3f806100206000396000f3fe608060405234801561001057600080fd5b50600436106100415760003560e01c8063501895ae146100465780635ca1e165146100765780637d5f67a114610094575b600080fd5b610060600480360381019061005b91906105d9565b6100b0565b60405161006d919061061f565b60405180910390f35b61007e6100d4565b60405161008b919061061f565b60405180910390f35b6100ae60048036038101906100a99190610854565b61010a565b005b600081815481106100c057600080fd5b906000526020600020016000915090505481565b60008060016000805490506100e991906108cc565b815481106100fa576100f9610900565b5b9060005260206000200154905090565b60006004905060008080549050146103fc57600081905060005b60018361013191906108cc565b8110156102a057600084826004811061014d5761014c610900565b5b602002015160405160200161016291906109a9565b60405160208183030381529060405280519060200120905060008560018461018a91906109c0565b6004811061019b5761019a610900565b5b60200201516040516020016101b091906109a9565b604051602081830303815290604052805190602001209050600083815481106101dc576101db610900565b5b90600052602060002001548214801561021e575060006001846101ff91906109c0565b815481106102105761020f610900565b5b906000526020600020015481145b156102375760018461023091906109c0565b935061028a565b816000848154811061024c5761024b610900565b5b906000526020600020018190555080600060018561026a91906109c0565b8154811061027b5761027a610900565b5b90600052602060002001819055505b505060028161029991906109c0565b9050610124565b506002826102ae9190610a45565b826102b991906109c0565b8114156102fb576040517f08c379a00000000000000000000000000000000000000000000000000000000081526004016102f290610af9565b60405180910390fd5b60008190505b60018360026103109190610b19565b61031a91906108cc565b8110156103f5576000838261032f91906108cc565b600261033b9190610b19565b8154811061034c5761034b610900565b5b906000526020600020015460006001858461036791906108cc565b60026103739190610b19565b61037d91906109c0565b8154811061038e5761038d610900565b5b90600052602060002001546040516020016103aa929190610b94565b60405160208183030381529060405280519060200120600082815481106103d4576103d3610900565b5b906000526020600020018190555080806103ed90610bc0565b915050610301565b505061058b565b60005b8181101561048057600083826004811061041c5761041b610900565b5b602002015160405160200161043191906109a9565b604051602081830303815290604052805190602001209080600181540180825580915050600190039060005260206000200160009091909190915055808061047890610bc0565b9150506103ff565b5060005b60008211156105895760005b60018361049d91906108cc565b8110156105665760008082846104b391906109c0565b815481106104c4576104c3610900565b5b90600052602060002001546000600184866104df91906109c0565b6104e991906109c0565b815481106104fa576104f9610900565b5b9060005260206000200154604051602001610516929190610b94565b60405160208183030381529060405280519060200120908060018154018082558091505060019003906000526020600020016000909190919091505560028161055f91906109c0565b9050610490565b50818161057391906109c0565b90506002826105829190610a45565b9150610484565b505b5050565b6000604051905090565b600080fd5b600080fd5b6000819050919050565b6105b6816105a3565b81146105c157600080fd5b50565b6000813590506105d3816105ad565b92915050565b6000602082840312156105ef576105ee610599565b5b60006105fd848285016105c4565b91505092915050565b6000819050919050565b61061981610606565b82525050565b60006020820190506106346000830184610610565b92915050565b600080fd5b6000601f19601f8301169050919050565b7f4e487b7100000000000000000000000000000000000000000000000000000000600052604160045260246000fd5b6106888261063f565b810181811067ffffffffffffffff821117156106a7576106a6610650565b5b80604052505050565b60006106ba61058f565b90506106c6828261067f565b919050565b600067ffffffffffffffff8211156106e6576106e5610650565b5b602082029050919050565b600080fd5b600080fd5b600067ffffffffffffffff82111561071657610715610650565b5b61071f8261063f565b9050602081019050919050565b82818337600083830152505050565b600061074e610749846106fb565b6106b0565b90508281526020810184848401111561076a576107696106f6565b5b61077584828561072c565b509392505050565b600082601f8301126107925761079161063a565b5b81356107a284826020860161073b565b91505092915050565b60006107be6107b9846106cb565b6106b0565b905080602084028301858111156107d8576107d76106f1565b5b835b8181101561081f57803567ffffffffffffffff8111156107fd576107fc61063a565b5b80860161080a898261077d565b855260208501945050506020810190506107da565b5050509392505050565b600082601f83011261083e5761083d61063a565b5b600461084b8482856107ab565b91505092915050565b60006020828403121561086a57610869610599565b5b600082013567ffffffffffffffff8111156108885761088761059e565b5b61089484828501610829565b91505092915050565b7f4e487b7100000000000000000000000000000000000000000000000000000000600052601160045260246000fd5b60006108d7826105a3565b91506108e2836105a3565b9250828210156108f5576108f461089d565b5b828203905092915050565b7f4e487b7100000000000000000000000000000000000000000000000000000000600052603260045260246000fd5b600081519050919050565b600081905092915050565b60005b83811015610963578082015181840152602081019050610948565b83811115610972576000848401525b50505050565b60006109838261092f565b61098d818561093a565b935061099d818560208601610945565b80840191505092915050565b60006109b58284610978565b915081905092915050565b60006109cb826105a3565b91506109d6836105a3565b9250827fffffffffffffffffffffffffffffffffffffffffffffffffffffffffffffffff03821115610a0b57610a0a61089d565b5b828201905092915050565b7f4e487b7100000000000000000000000000000000000000000000000000000000600052601260045260246000fd5b6000610a50826105a3565b9150610a5b836105a3565b925082610a6b57610a6a610a16565b5b828204905092915050565b600082825260208201905092915050565b7f4e6f206c656166206368616e6765642c207472656520616c726561647920757060008201527f20746f20646174652e0000000000000000000000000000000000000000000000602082015250565b6000610ae3602983610a76565b9150610aee82610a87565b604082019050919050565b60006020820190508181036000830152610b1281610ad6565b9050919050565b6000610b24826105a3565b9150610b2f836105a3565b9250817fffffffffffffffffffffffffffffffffffffffffffffffffffffffffffffffff0483118215151615610b6857610b6761089d565b5b828202905092915050565b6000819050919050565b610b8e610b8982610606565b610b73565b82525050565b6000610ba08285610b7d565b602082019150610bb08284610b7d565b6020820191508190509392505050565b6000610bcb826105a3565b91507fffffffffffffffffffffffffffffffffffffffffffffffffffffffffffffffff821415610bfe57610bfd61089d565b5b60018201905091905056fea26469706673582212204c9ad293e1ac8878b0ca9f490c301f86d16553f10a6873d3632198d3b97e011d64736f6c634300080a0033",
  "linkReferences": {},
  "deployedLinkReferences": {}
}