{
  "_format": "hh-sol-artifact-1",
  "contractName": "MerkleTree",
  "sourceName": "contracts/MerkleTree.sol",
  "abi": [
    {
      "inputs": [
        {
          "internalType": "string[4]",
          "name": "transactions",
          "type": "string[4]"
        }
      ],
      "name": "generateTree",
      "outputs": [
        {
          "internalType": "bytes32[4]",
          "name": "",
          "type": "bytes32[4]"
        }
      ],
      "stateMutability": "nonpayable",
      "type": "function"
    },
    {
      "inputs": [],
      "name": "getRoot",
      "outputs": [
        {
          "internalType": "bytes32",
          "name": "",
          "type": "bytes32"
        }
      ],
      "stateMutability": "view",
      "type": "function"
    },
    {
      "inputs": [
        {
          "internalType": "uint256",
          "name": "",
          "type": "uint256"
        }
      ],
      "name": "hashes",
      "outputs": [
        {
          "internalType": "bytes32",
          "name": "",
          "type": "bytes32"
        }
      ],
      "stateMutability": "view",
      "type": "function"
    }
  ],
  "bytecode": "0x608060405234801561001057600080fd5b50610de3806100206000396000f3fe608060405234801561001057600080fd5b50600436106100415760003560e01c8063501895ae146100465780635ca1e165146100765780637d5f67a114610094575b600080fd5b610060600480360381019061005b91906106b7565b6100c4565b60405161006d91906106fd565b60405180910390f35b61007e6100e8565b60405161008b91906106fd565b60405180910390f35b6100ae60048036038101906100a99190610932565b61011e565b6040516100bb9190610a26565b60405180910390f35b600081815481106100d457600080fd5b906000526020600020016000915090505481565b60008060016000805490506100fd9190610a70565b8154811061010e5761010d610aa4565b5b9060005260206000200154905090565b61012661064b565b600060049050600080805490501461041857600081905060005b60018361014d9190610a70565b8110156102bc57600085826004811061016957610168610aa4565b5b602002015160405160200161017e9190610b4d565b6040516020818303038152906040528051906020012090506000866001846101a69190610b64565b600481106101b7576101b6610aa4565b5b60200201516040516020016101cc9190610b4d565b604051602081830303815290604052805190602001209050600083815481106101f8576101f7610aa4565b5b90600052602060002001548214801561023a5750600060018461021b9190610b64565b8154811061022c5761022b610aa4565b5b906000526020600020015481145b156102535760018461024c9190610b64565b93506102a6565b816000848154811061026857610267610aa4565b5b90600052602060002001819055508060006001856102869190610b64565b8154811061029757610296610aa4565b5b90600052602060002001819055505b50506002816102b59190610b64565b9050610140565b506002826102ca9190610be9565b826102d59190610b64565b811415610317576040517f08c379a000000000000000000000000000000000000000000000000000000000815260040161030e90610c9d565b60405180910390fd5b60008190505b600183600261032c9190610cbd565b6103369190610a70565b811015610411576000838261034b9190610a70565b60026103579190610cbd565b8154811061036857610367610aa4565b5b90600052602060002001546000600185846103839190610a70565b600261038f9190610cbd565b6103999190610b64565b815481106103aa576103a9610aa4565b5b90600052602060002001546040516020016103c6929190610d38565b60405160208183030381529060405280519060200120600082815481106103f0576103ef610aa4565b5b9060005260206000200181905550808061040990610d64565b91505061031d565b50506105a7565b60005b8181101561049c57600084826004811061043857610437610aa4565b5b602002015160405160200161044d9190610b4d565b604051602081830303815290604052805190602001209080600181540180825580915050600190039060005260206000200160009091909190915055808061049490610d64565b91505061041b565b5060005b60008211156105a55760005b6001836104b99190610a70565b8110156105825760008082846104cf9190610b64565b815481106104e0576104df610aa4565b5b90600052602060002001546000600184866104fb9190610b64565b6105059190610b64565b8154811061051657610515610aa4565b5b9060005260206000200154604051602001610532929190610d38565b60405160208183030381529060405280519060200120908060018154018082558091505060019003906000526020600020016000909190919091505560028161057b9190610b64565b90506104ac565b50818161058f9190610b64565b905060028261059e9190610be9565b91506104a0565b505b6040518060800160405280600080815481106105c6576105c5610aa4565b5b9060005260206000200154815260200160006001815481106105eb576105ea610aa4565b5b9060005260206000200154815260200160006002815481106106105761060f610aa4565b5b90600052602060002001548152602001600060038154811061063557610634610aa4565b5b9060005260206000200154815250915050919050565b6040518060800160405280600490602082028036833780820191505090505090565b6000604051905090565b600080fd5b600080fd5b6000819050919050565b61069481610681565b811461069f57600080fd5b50565b6000813590506106b18161068b565b92915050565b6000602082840312156106cd576106cc610677565b5b60006106db848285016106a2565b91505092915050565b6000819050919050565b6106f7816106e4565b82525050565b600060208201905061071260008301846106ee565b92915050565b600080fd5b6000601f19601f8301169050919050565b7f4e487b7100000000000000000000000000000000000000000000000000000000600052604160045260246000fd5b6107668261071d565b810181811067ffffffffffffffff821117156107855761078461072e565b5b80604052505050565b600061079861066d565b90506107a4828261075d565b919050565b600067ffffffffffffffff8211156107c4576107c361072e565b5b602082029050919050565b600080fd5b600080fd5b600067ffffffffffffffff8211156107f4576107f361072e565b5b6107fd8261071d565b9050602081019050919050565b82818337600083830152505050565b600061082c610827846107d9565b61078e565b905082815260208101848484011115610848576108476107d4565b5b61085384828561080a565b509392505050565b600082601f8301126108705761086f610718565b5b8135610880848260208601610819565b91505092915050565b600061089c610897846107a9565b61078e565b905080602084028301858111156108b6576108b56107cf565b5b835b818110156108fd57803567ffffffffffffffff8111156108db576108da610718565b5b8086016108e8898261085b565b855260208501945050506020810190506108b8565b5050509392505050565b600082601f83011261091c5761091b610718565b5b6004610929848285610889565b91505092915050565b60006020828403121561094857610947610677565b5b600082013567ffffffffffffffff8111156109665761096561067c565b5b61097284828501610907565b91505092915050565b600060049050919050565b600081905092915050565b6000819050919050565b6109a4816106e4565b82525050565b60006109b6838361099b565b60208301905092915050565b6000602082019050919050565b6109d88161097b565b6109e28184610986565b92506109ed82610991565b8060005b83811015610a1e578151610a0587826109aa565b9650610a10836109c2565b9250506001810190506109f1565b505050505050565b6000608082019050610a3b60008301846109cf565b92915050565b7f4e487b7100000000000000000000000000000000000000000000000000000000600052601160045260246000fd5b6000610a7b82610681565b9150610a8683610681565b925082821015610a9957610a98610a41565b5b828203905092915050565b7f4e487b7100000000000000000000000000000000000000000000000000000000600052603260045260246000fd5b600081519050919050565b600081905092915050565b60005b83811015610b07578082015181840152602081019050610aec565b83811115610b16576000848401525b50505050565b6000610b2782610ad3565b610b318185610ade565b9350610b41818560208601610ae9565b80840191505092915050565b6000610b598284610b1c565b915081905092915050565b6000610b6f82610681565b9150610b7a83610681565b9250827fffffffffffffffffffffffffffffffffffffffffffffffffffffffffffffffff03821115610baf57610bae610a41565b5b828201905092915050565b7f4e487b7100000000000000000000000000000000000000000000000000000000600052601260045260246000fd5b6000610bf482610681565b9150610bff83610681565b925082610c0f57610c0e610bba565b5b828204905092915050565b600082825260208201905092915050565b7f4e6f206c656166206368616e6765642c207472656520616c726561647920757060008201527f20746f20646174652e0000000000000000000000000000000000000000000000602082015250565b6000610c87602983610c1a565b9150610c9282610c2b565b604082019050919050565b60006020820190508181036000830152610cb681610c7a565b9050919050565b6000610cc882610681565b9150610cd383610681565b9250817fffffffffffffffffffffffffffffffffffffffffffffffffffffffffffffffff0483118215151615610d0c57610d0b610a41565b5b828202905092915050565b6000819050919050565b610d32610d2d826106e4565b610d17565b82525050565b6000610d448285610d21565b602082019150610d548284610d21565b6020820191508190509392505050565b6000610d6f82610681565b91507fffffffffffffffffffffffffffffffffffffffffffffffffffffffffffffffff821415610da257610da1610a41565b5b60018201905091905056fea2646970667358221220ee3157009da653dd3fbc78017cce5ffad15ee5c0623e398ef58b15ee8a646c3464736f6c634300080a0033",
  "linkReferences": {},
  "deployedLinkReferences": {}
}