{
  "_format": "hh-sol-artifact-1",
  "contractName": "ZKUTokenWithMerkleTree",
  "sourceName": "contracts/ZKUTokenWithMerkleTree.sol",
  "abi": [
    {
      "inputs": [],
      "stateMutability": "nonpayable",
      "type": "constructor"
    },
    {
      "anonymous": false,
      "inputs": [
        {
          "indexed": true,
          "internalType": "address",
          "name": "owner",
          "type": "address"
        },
        {
          "indexed": true,
          "internalType": "address",
          "name": "approved",
          "type": "address"
        },
        {
          "indexed": true,
          "internalType": "uint256",
          "name": "tokenId",
          "type": "uint256"
        }
      ],
      "name": "Approval",
      "type": "event"
    },
    {
      "anonymous": false,
      "inputs": [
        {
          "indexed": true,
          "internalType": "address",
          "name": "owner",
          "type": "address"
        },
        {
          "indexed": true,
          "internalType": "address",
          "name": "operator",
          "type": "address"
        },
        {
          "indexed": false,
          "internalType": "bool",
          "name": "approved",
          "type": "bool"
        }
      ],
      "name": "ApprovalForAll",
      "type": "event"
    },
    {
      "anonymous": false,
      "inputs": [
        {
          "indexed": true,
          "internalType": "address",
          "name": "from",
          "type": "address"
        },
        {
          "indexed": true,
          "internalType": "address",
          "name": "to",
          "type": "address"
        },
        {
          "indexed": true,
          "internalType": "uint256",
          "name": "tokenId",
          "type": "uint256"
        }
      ],
      "name": "Transfer",
      "type": "event"
    },
    {
      "inputs": [
        {
          "internalType": "address",
          "name": "to",
          "type": "address"
        },
        {
          "internalType": "uint256",
          "name": "tokenId",
          "type": "uint256"
        }
      ],
      "name": "approve",
      "outputs": [],
      "stateMutability": "nonpayable",
      "type": "function"
    },
    {
      "inputs": [
        {
          "internalType": "address",
          "name": "receiver",
          "type": "address"
        },
        {
          "internalType": "address",
          "name": "_merkleTree",
          "type": "address"
        }
      ],
      "name": "awardItem",
      "outputs": [
        {
          "internalType": "uint256",
          "name": "",
          "type": "uint256"
        }
      ],
      "stateMutability": "nonpayable",
      "type": "function"
    },
    {
      "inputs": [
        {
          "internalType": "address",
          "name": "owner",
          "type": "address"
        }
      ],
      "name": "balanceOf",
      "outputs": [
        {
          "internalType": "uint256",
          "name": "",
          "type": "uint256"
        }
      ],
      "stateMutability": "view",
      "type": "function"
    },
    {
      "inputs": [
        {
          "internalType": "uint256",
          "name": "tokenId",
          "type": "uint256"
        }
      ],
      "name": "getApproved",
      "outputs": [
        {
          "internalType": "address",
          "name": "",
          "type": "address"
        }
      ],
      "stateMutability": "view",
      "type": "function"
    },
    {
      "inputs": [
        {
          "internalType": "address",
          "name": "owner",
          "type": "address"
        },
        {
          "internalType": "address",
          "name": "operator",
          "type": "address"
        }
      ],
      "name": "isApprovedForAll",
      "outputs": [
        {
          "internalType": "bool",
          "name": "",
          "type": "bool"
        }
      ],
      "stateMutability": "view",
      "type": "function"
    },
    {
      "inputs": [],
      "name": "name",
      "outputs": [
        {
          "internalType": "string",
          "name": "",
          "type": "string"
        }
      ],
      "stateMutability": "view",
      "type": "function"
    },
    {
      "inputs": [
        {
          "internalType": "uint256",
          "name": "tokenId",
          "type": "uint256"
        }
      ],
      "name": "ownerOf",
      "outputs": [
        {
          "internalType": "address",
          "name": "",
          "type": "address"
        }
      ],
      "stateMutability": "view",
      "type": "function"
    },
    {
      "inputs": [
        {
          "internalType": "address",
          "name": "from",
          "type": "address"
        },
        {
          "internalType": "address",
          "name": "to",
          "type": "address"
        },
        {
          "internalType": "uint256",
          "name": "tokenId",
          "type": "uint256"
        }
      ],
      "name": "safeTransferFrom",
      "outputs": [],
      "stateMutability": "nonpayable",
      "type": "function"
    },
    {
      "inputs": [
        {
          "internalType": "address",
          "name": "from",
          "type": "address"
        },
        {
          "internalType": "address",
          "name": "to",
          "type": "address"
        },
        {
          "internalType": "uint256",
          "name": "tokenId",
          "type": "uint256"
        },
        {
          "internalType": "bytes",
          "name": "_data",
          "type": "bytes"
        }
      ],
      "name": "safeTransferFrom",
      "outputs": [],
      "stateMutability": "nonpayable",
      "type": "function"
    },
    {
      "inputs": [
        {
          "internalType": "address",
          "name": "operator",
          "type": "address"
        },
        {
          "internalType": "bool",
          "name": "approved",
          "type": "bool"
        }
      ],
      "name": "setApprovalForAll",
      "outputs": [],
      "stateMutability": "nonpayable",
      "type": "function"
    },
    {
      "inputs": [
        {
          "internalType": "bytes4",
          "name": "interfaceId",
          "type": "bytes4"
        }
      ],
      "name": "supportsInterface",
      "outputs": [
        {
          "internalType": "bool",
          "name": "",
          "type": "bool"
        }
      ],
      "stateMutability": "view",
      "type": "function"
    },
    {
      "inputs": [],
      "name": "symbol",
      "outputs": [
        {
          "internalType": "string",
          "name": "",
          "type": "string"
        }
      ],
      "stateMutability": "view",
      "type": "function"
    },
    {
      "inputs": [
        {
          "internalType": "bytes",
          "name": "data",
          "type": "bytes"
        }
      ],
      "name": "toString",
      "outputs": [
        {
          "internalType": "string",
          "name": "",
          "type": "string"
        }
      ],
      "stateMutability": "pure",
      "type": "function"
    },
    {
      "inputs": [
        {
          "internalType": "uint256",
          "name": "tokenId",
          "type": "uint256"
        }
      ],
      "name": "tokenURI",
      "outputs": [
        {
          "internalType": "string",
          "name": "",
          "type": "string"
        }
      ],
      "stateMutability": "pure",
      "type": "function"
    },
    {
      "inputs": [
        {
          "internalType": "address",
          "name": "from",
          "type": "address"
        },
        {
          "internalType": "address",
          "name": "to",
          "type": "address"
        },
        {
          "internalType": "uint256",
          "name": "tokenId",
          "type": "uint256"
        }
      ],
      "name": "transferFrom",
      "outputs": [],
      "stateMutability": "nonpayable",
      "type": "function"
    }
  ],
  "bytecode": "0x60806040523480156200001157600080fd5b506040518060400160405280600881526020017f5a4b55546f6b656e0000000000000000000000000000000000000000000000008152506040518060400160405280600481526020017f5a4b555400000000000000000000000000000000000000000000000000000000815250816000908051906020019062000096929190620000b8565b508060019080519060200190620000af929190620000b8565b505050620001cd565b828054620000c69062000197565b90600052602060002090601f016020900481019282620000ea576000855562000136565b82601f106200010557805160ff191683800117855562000136565b8280016001018555821562000136579182015b828111156200013557825182559160200191906001019062000118565b5b50905062000145919062000149565b5090565b5b80821115620001645760008160009055506001016200014a565b5090565b7f4e487b7100000000000000000000000000000000000000000000000000000000600052602260045260246000fd5b60006002820490506001821680620001b057607f821691505b60208210811415620001c757620001c662000168565b5b50919050565b6131c880620001dd6000396000f3fe608060405234801561001057600080fd5b50600436106100f55760003560e01c806370a0823111610097578063b88d4fde11610066578063b88d4fde14610296578063c87b56dd146102b2578063e31ab8df146102e2578063e985e9c514610312576100f5565b806370a08231146101fc57806371aad10d1461022c57806395d89b411461025c578063a22cb4651461027a576100f5565b8063095ea7b3116100d3578063095ea7b31461017857806323b872dd1461019457806342842e0e146101b05780636352211e146101cc576100f5565b806301ffc9a7146100fa57806306fdde031461012a578063081812fc14610148575b600080fd5b610114600480360381019061010f9190611d00565b610342565b6040516101219190611d48565b60405180910390f35b610132610424565b60405161013f9190611dfc565b60405180910390f35b610162600480360381019061015d9190611e54565b6104b6565b60405161016f9190611ec2565b60405180910390f35b610192600480360381019061018d9190611f09565b61053b565b005b6101ae60048036038101906101a99190611f49565b610653565b005b6101ca60048036038101906101c59190611f49565b6106b3565b005b6101e660048036038101906101e19190611e54565b6106d3565b6040516101f39190611ec2565b60405180910390f35b61021660048036038101906102119190611f9c565b610785565b6040516102239190611fd8565b60405180910390f35b61024660048036038101906102419190612128565b61083d565b6040516102539190611dfc565b60405180910390f35b610264610b37565b6040516102719190611dfc565b60405180910390f35b610294600480360381019061028f919061219d565b610bc9565b005b6102b060048036038101906102ab91906121dd565b610bdf565b005b6102cc60048036038101906102c79190611e54565b610c41565b6040516102d99190611dfc565b60405180910390f35b6102fc60048036038101906102f79190612260565b610c9f565b6040516103099190611fd8565b60405180910390f35b61032c60048036038101906103279190612260565b610dcc565b6040516103399190611d48565b60405180910390f35b60007f80ac58cd000000000000000000000000000000000000000000000000000000007bffffffffffffffffffffffffffffffffffffffffffffffffffffffff1916827bffffffffffffffffffffffffffffffffffffffffffffffffffffffff1916148061040d57507f5b5e139f000000000000000000000000000000000000000000000000000000007bffffffffffffffffffffffffffffffffffffffffffffffffffffffff1916827bffffffffffffffffffffffffffffffffffffffffffffffffffffffff1916145b8061041d575061041c82610e60565b5b9050919050565b606060008054610433906122cf565b80601f016020809104026020016040519081016040528092919081815260200182805461045f906122cf565b80156104ac5780601f10610481576101008083540402835291602001916104ac565b820191906000526020600020905b81548152906001019060200180831161048f57829003601f168201915b5050505050905090565b60006104c182610eca565b610500576040517f08c379a00000000000000000000000000000000000000000000000000000000081526004016104f790612373565b60405180910390fd5b6004600083815260200190815260200160002060009054906101000a900473ffffffffffffffffffffffffffffffffffffffff169050919050565b6000610546826106d3565b90508073ffffffffffffffffffffffffffffffffffffffff168373ffffffffffffffffffffffffffffffffffffffff1614156105b7576040517f08c379a00000000000000000000000000000000000000000000000000000000081526004016105ae90612405565b60405180910390fd5b8073ffffffffffffffffffffffffffffffffffffffff166105d6610f36565b73ffffffffffffffffffffffffffffffffffffffff1614806106055750610604816105ff610f36565b610dcc565b5b610644576040517f08c379a000000000000000000000000000000000000000000000000000000000815260040161063b90612497565b60405180910390fd5b61064e8383610f3e565b505050565b61066461065e610f36565b82610ff7565b6106a3576040517f08c379a000000000000000000000000000000000000000000000000000000000815260040161069a90612529565b60405180910390fd5b6106ae8383836110d5565b505050565b6106ce83838360405180602001604052806000815250610bdf565b505050565b6000806002600084815260200190815260200160002060009054906101000a900473ffffffffffffffffffffffffffffffffffffffff169050600073ffffffffffffffffffffffffffffffffffffffff168173ffffffffffffffffffffffffffffffffffffffff16141561077c576040517f08c379a0000000000000000000000000000000000000000000000000000000008152600401610773906125bb565b60405180910390fd5b80915050919050565b60008073ffffffffffffffffffffffffffffffffffffffff168273ffffffffffffffffffffffffffffffffffffffff1614156107f6576040517f08c379a00000000000000000000000000000000000000000000000000000000081526004016107ed9061264d565b60405180910390fd5b600360008373ffffffffffffffffffffffffffffffffffffffff1673ffffffffffffffffffffffffffffffffffffffff168152602001908152602001600020549050919050565b606060006040518060400160405280601081526020017f30313233343536373839616263646566000000000000000000000000000000008152509050600060028451610889919061269c565b600261089591906126f6565b67ffffffffffffffff8111156108ae576108ad611ffd565b5b6040519080825280601f01601f1916602001820160405280156108e05781602001600182028036833780820191505090505b5090507f3000000000000000000000000000000000000000000000000000000000000000816000815181106109185761091761274c565b5b60200101907effffffffffffffffffffffffffffffffffffffffffffffffffffffffffffff1916908160001a9053507f78000000000000000000000000000000000000000000000000000000000000008160018151811061097c5761097b61274c565b5b60200101907effffffffffffffffffffffffffffffffffffffffffffffffffffffffffffff1916908160001a90535060005b8451811015610b2c578260048683815181106109cd576109cc61274c565b5b602001015160f81c60f81b7effffffffffffffffffffffffffffffffffffffffffffffffffffffffffffff1916901c60f81c60ff1681518110610a1357610a1261274c565b5b602001015160f81c60f81b82600283610a2c919061269c565b6002610a3891906126f6565b81518110610a4957610a4861274c565b5b60200101907effffffffffffffffffffffffffffffffffffffffffffffffffffffffffffff1916908160001a90535082600f60f81b868381518110610a9157610a9061274c565b5b602001015160f81c60f81b1660f81c60ff1681518110610ab457610ab361274c565b5b602001015160f81c60f81b82600283610acd919061269c565b6003610ad991906126f6565b81518110610aea57610ae961274c565b5b60200101907effffffffffffffffffffffffffffffffffffffffffffffffffffffffffffff1916908160001a9053508080610b249061277b565b9150506109ae565b508092505050919050565b606060018054610b46906122cf565b80601f0160208091040260200160405190810160405280929190818152602001828054610b72906122cf565b8015610bbf5780601f10610b9457610100808354040283529160200191610bbf565b820191906000526020600020905b815481529060010190602001808311610ba257829003601f168201915b5050505050905090565b610bdb610bd4610f36565b838361133c565b5050565b610bf0610bea610f36565b83610ff7565b610c2f576040517f08c379a0000000000000000000000000000000000000000000000000000000008152600401610c2690612529565b60405180910390fd5b610c3b848484846114a9565b50505050565b60606000610c4e83611505565b604051602001610c5e9190612956565b6040516020818303038152906040529050610c7881611666565b604051602001610c8891906129e5565b604051602081830303815290604052915050919050565b6000610cab60076117ca565b6000610cb760076117e0565b9050610cc384826117ee565b6000610cce82610c41565b9050610cda82826119c8565b60006040518060800160405280610d0f33604051602001610cfb9190612a4f565b60405160208183030381529060405261083d565b8152602001610d3c88604051602001610d289190612a4f565b60405160208183030381529060405261083d565b8152602001610d4a85611505565b81526020018381525090508473ffffffffffffffffffffffffffffffffffffffff16637d5f67a1826040518263ffffffff1660e01b8152600401610d8e9190612b6a565b600060405180830381600087803b158015610da857600080fd5b505af1158015610dbc573d6000803e3d6000fd5b5050505082935050505092915050565b6000600560008473ffffffffffffffffffffffffffffffffffffffff1673ffffffffffffffffffffffffffffffffffffffff16815260200190815260200160002060008373ffffffffffffffffffffffffffffffffffffffff1673ffffffffffffffffffffffffffffffffffffffff16815260200190815260200160002060009054906101000a900460ff16905092915050565b60007f01ffc9a7000000000000000000000000000000000000000000000000000000007bffffffffffffffffffffffffffffffffffffffffffffffffffffffff1916827bffffffffffffffffffffffffffffffffffffffffffffffffffffffff1916149050919050565b60008073ffffffffffffffffffffffffffffffffffffffff166002600084815260200190815260200160002060009054906101000a900473ffffffffffffffffffffffffffffffffffffffff1673ffffffffffffffffffffffffffffffffffffffff1614159050919050565b600033905090565b816004600083815260200190815260200160002060006101000a81548173ffffffffffffffffffffffffffffffffffffffff021916908373ffffffffffffffffffffffffffffffffffffffff160217905550808273ffffffffffffffffffffffffffffffffffffffff16610fb1836106d3565b73ffffffffffffffffffffffffffffffffffffffff167f8c5be1e5ebec7d5bd14f71427d1e84f3dd0314c0f7b2291e5b200ac8c7c3b92560405160405180910390a45050565b600061100282610eca565b611041576040517f08c379a000000000000000000000000000000000000000000000000000000000815260040161103890612bfe565b60405180910390fd5b600061104c836106d3565b90508073ffffffffffffffffffffffffffffffffffffffff168473ffffffffffffffffffffffffffffffffffffffff1614806110bb57508373ffffffffffffffffffffffffffffffffffffffff166110a3846104b6565b73ffffffffffffffffffffffffffffffffffffffff16145b806110cc57506110cb8185610dcc565b5b91505092915050565b8273ffffffffffffffffffffffffffffffffffffffff166110f5826106d3565b73ffffffffffffffffffffffffffffffffffffffff161461114b576040517f08c379a000000000000000000000000000000000000000000000000000000000815260040161114290612c90565b60405180910390fd5b600073ffffffffffffffffffffffffffffffffffffffff168273ffffffffffffffffffffffffffffffffffffffff1614156111bb576040517f08c379a00000000000000000000000000000000000000000000000000000000081526004016111b290612d22565b60405180910390fd5b6111c6838383611a3c565b6111d1600082610f3e565b6001600360008573ffffffffffffffffffffffffffffffffffffffff1673ffffffffffffffffffffffffffffffffffffffff16815260200190815260200160002060008282546112219190612d42565b925050819055506001600360008473ffffffffffffffffffffffffffffffffffffffff1673ffffffffffffffffffffffffffffffffffffffff168152602001908152602001600020600082825461127891906126f6565b92505081905550816002600083815260200190815260200160002060006101000a81548173ffffffffffffffffffffffffffffffffffffffff021916908373ffffffffffffffffffffffffffffffffffffffff160217905550808273ffffffffffffffffffffffffffffffffffffffff168473ffffffffffffffffffffffffffffffffffffffff167fddf252ad1be2c89b69c2b068fc378daa952ba7f163c4a11628f55a4df523b3ef60405160405180910390a4611337838383611a41565b505050565b8173ffffffffffffffffffffffffffffffffffffffff168373ffffffffffffffffffffffffffffffffffffffff1614156113ab576040517f08c379a00000000000000000000000000000000000000000000000000000000081526004016113a290612dc2565b60405180910390fd5b80600560008573ffffffffffffffffffffffffffffffffffffffff1673ffffffffffffffffffffffffffffffffffffffff16815260200190815260200160002060008473ffffffffffffffffffffffffffffffffffffffff1673ffffffffffffffffffffffffffffffffffffffff16815260200190815260200160002060006101000a81548160ff0219169083151502179055508173ffffffffffffffffffffffffffffffffffffffff168373ffffffffffffffffffffffffffffffffffffffff167f17307eab39ab6107e8899845ad3d59bd9653f200f220920489ca2b5937696c318360405161149c9190611d48565b60405180910390a3505050565b6114b48484846110d5565b6114c084848484611a46565b6114ff576040517f08c379a00000000000000000000000000000000000000000000000000000000081526004016114f690612e54565b60405180910390fd5b50505050565b6060600082141561154d576040518060400160405280600181526020017f30000000000000000000000000000000000000000000000000000000000000008152509050611661565b600082905060005b6000821461157f5780806115689061277b565b915050600a826115789190612ea3565b9150611555565b60008167ffffffffffffffff81111561159b5761159a611ffd565b5b6040519080825280601f01601f1916602001820160405280156115cd5781602001600182028036833780820191505090505b5090505b6000851461165a576001826115e69190612d42565b9150600a856115f59190612ed4565b603061160191906126f6565b60f81b8183815181106116175761161661274c565b5b60200101907effffffffffffffffffffffffffffffffffffffffffffffffffffffffffffff1916908160001a905350600a856116539190612ea3565b94506115d1565b8093505050505b919050565b6060600082511415611689576040518060200160405280600081525090506117c5565b600060405180606001604052806040815260200161315360409139905060006003600285516116b891906126f6565b6116c29190612ea3565b60046116ce919061269c565b67ffffffffffffffff8111156116e7576116e6611ffd565b5b6040519080825280601f01601f1916602001820160405280156117195781602001600182028036833780820191505090505b509050600182016020820185865187015b80821015611785576003820191508151603f8160121c168501518453600184019350603f81600c1c168501518453600184019350603f8160061c168501518453600184019350603f811685015184536001840193505061172a565b50506003865106600181146117a157600281146117b4576117bc565b603d6001830353603d60028303536117bc565b603d60018303535b50505080925050505b919050565b6001816000016000828254019250508190555050565b600081600001549050919050565b600073ffffffffffffffffffffffffffffffffffffffff168273ffffffffffffffffffffffffffffffffffffffff16141561185e576040517f08c379a000000000000000000000000000000000000000000000000000000000815260040161185590612f51565b60405180910390fd5b61186781610eca565b156118a7576040517f08c379a000000000000000000000000000000000000000000000000000000000815260040161189e90612fbd565b60405180910390fd5b6118b360008383611a3c565b6001600360008473ffffffffffffffffffffffffffffffffffffffff1673ffffffffffffffffffffffffffffffffffffffff168152602001908152602001600020600082825461190391906126f6565b92505081905550816002600083815260200190815260200160002060006101000a81548173ffffffffffffffffffffffffffffffffffffffff021916908373ffffffffffffffffffffffffffffffffffffffff160217905550808273ffffffffffffffffffffffffffffffffffffffff16600073ffffffffffffffffffffffffffffffffffffffff167fddf252ad1be2c89b69c2b068fc378daa952ba7f163c4a11628f55a4df523b3ef60405160405180910390a46119c460008383611a41565b5050565b6119d182610eca565b611a10576040517f08c379a0000000000000000000000000000000000000000000000000000000008152600401611a079061304f565b60405180910390fd5b80600660008481526020019081526020016000209080519060200190611a37929190611bf1565b505050565b505050565b505050565b6000611a678473ffffffffffffffffffffffffffffffffffffffff16611bce565b15611bc1578373ffffffffffffffffffffffffffffffffffffffff1663150b7a02611a90610f36565b8786866040518563ffffffff1660e01b8152600401611ab294939291906130c4565b6020604051808303816000875af1925050508015611aee57506040513d601f19601f82011682018060405250810190611aeb9190613125565b60015b611b71573d8060008114611b1e576040519150601f19603f3d011682016040523d82523d6000602084013e611b23565b606091505b50600081511415611b69576040517f08c379a0000000000000000000000000000000000000000000000000000000008152600401611b6090612e54565b60405180910390fd5b805181602001fd5b63150b7a0260e01b7bffffffffffffffffffffffffffffffffffffffffffffffffffffffff1916817bffffffffffffffffffffffffffffffffffffffffffffffffffffffff191614915050611bc6565b600190505b949350505050565b6000808273ffffffffffffffffffffffffffffffffffffffff163b119050919050565b828054611bfd906122cf565b90600052602060002090601f016020900481019282611c1f5760008555611c66565b82601f10611c3857805160ff1916838001178555611c66565b82800160010185558215611c66579182015b82811115611c65578251825591602001919060010190611c4a565b5b509050611c739190611c77565b5090565b5b80821115611c90576000816000905550600101611c78565b5090565b6000604051905090565b600080fd5b600080fd5b60007fffffffff0000000000000000000000000000000000000000000000000000000082169050919050565b611cdd81611ca8565b8114611ce857600080fd5b50565b600081359050611cfa81611cd4565b92915050565b600060208284031215611d1657611d15611c9e565b5b6000611d2484828501611ceb565b91505092915050565b60008115159050919050565b611d4281611d2d565b82525050565b6000602082019050611d5d6000830184611d39565b92915050565b600081519050919050565b600082825260208201905092915050565b60005b83811015611d9d578082015181840152602081019050611d82565b83811115611dac576000848401525b50505050565b6000601f19601f8301169050919050565b6000611dce82611d63565b611dd88185611d6e565b9350611de8818560208601611d7f565b611df181611db2565b840191505092915050565b60006020820190508181036000830152611e168184611dc3565b905092915050565b6000819050919050565b611e3181611e1e565b8114611e3c57600080fd5b50565b600081359050611e4e81611e28565b92915050565b600060208284031215611e6a57611e69611c9e565b5b6000611e7884828501611e3f565b91505092915050565b600073ffffffffffffffffffffffffffffffffffffffff82169050919050565b6000611eac82611e81565b9050919050565b611ebc81611ea1565b82525050565b6000602082019050611ed76000830184611eb3565b92915050565b611ee681611ea1565b8114611ef157600080fd5b50565b600081359050611f0381611edd565b92915050565b60008060408385031215611f2057611f1f611c9e565b5b6000611f2e85828601611ef4565b9250506020611f3f85828601611e3f565b9150509250929050565b600080600060608486031215611f6257611f61611c9e565b5b6000611f7086828701611ef4565b9350506020611f8186828701611ef4565b9250506040611f9286828701611e3f565b9150509250925092565b600060208284031215611fb257611fb1611c9e565b5b6000611fc084828501611ef4565b91505092915050565b611fd281611e1e565b82525050565b6000602082019050611fed6000830184611fc9565b92915050565b600080fd5b600080fd5b7f4e487b7100000000000000000000000000000000000000000000000000000000600052604160045260246000fd5b61203582611db2565b810181811067ffffffffffffffff8211171561205457612053611ffd565b5b80604052505050565b6000612067611c94565b9050612073828261202c565b919050565b600067ffffffffffffffff82111561209357612092611ffd565b5b61209c82611db2565b9050602081019050919050565b82818337600083830152505050565b60006120cb6120c684612078565b61205d565b9050828152602081018484840111156120e7576120e6611ff8565b5b6120f28482856120a9565b509392505050565b600082601f83011261210f5761210e611ff3565b5b813561211f8482602086016120b8565b91505092915050565b60006020828403121561213e5761213d611c9e565b5b600082013567ffffffffffffffff81111561215c5761215b611ca3565b5b612168848285016120fa565b91505092915050565b61217a81611d2d565b811461218557600080fd5b50565b60008135905061219781612171565b92915050565b600080604083850312156121b4576121b3611c9e565b5b60006121c285828601611ef4565b92505060206121d385828601612188565b9150509250929050565b600080600080608085870312156121f7576121f6611c9e565b5b600061220587828801611ef4565b945050602061221687828801611ef4565b935050604061222787828801611e3f565b925050606085013567ffffffffffffffff81111561224857612247611ca3565b5b612254878288016120fa565b91505092959194509250565b6000806040838503121561227757612276611c9e565b5b600061228585828601611ef4565b925050602061229685828601611ef4565b9150509250929050565b7f4e487b7100000000000000000000000000000000000000000000000000000000600052602260045260246000fd5b600060028204905060018216806122e757607f821691505b602082108114156122fb576122fa6122a0565b5b50919050565b7f4552433732313a20617070726f76656420717565727920666f72206e6f6e657860008201527f697374656e7420746f6b656e0000000000000000000000000000000000000000602082015250565b600061235d602c83611d6e565b915061236882612301565b604082019050919050565b6000602082019050818103600083015261238c81612350565b9050919050565b7f4552433732313a20617070726f76616c20746f2063757272656e74206f776e6560008201527f7200000000000000000000000000000000000000000000000000000000000000602082015250565b60006123ef602183611d6e565b91506123fa82612393565b604082019050919050565b6000602082019050818103600083015261241e816123e2565b9050919050565b7f4552433732313a20617070726f76652063616c6c6572206973206e6f74206f7760008201527f6e6572206e6f7220617070726f76656420666f7220616c6c0000000000000000602082015250565b6000612481603883611d6e565b915061248c82612425565b604082019050919050565b600060208201905081810360008301526124b081612474565b9050919050565b7f4552433732313a207472616e736665722063616c6c6572206973206e6f74206f60008201527f776e6572206e6f7220617070726f766564000000000000000000000000000000602082015250565b6000612513603183611d6e565b915061251e826124b7565b604082019050919050565b6000602082019050818103600083015261254281612506565b9050919050565b7f4552433732313a206f776e657220717565727920666f72206e6f6e657869737460008201527f656e7420746f6b656e0000000000000000000000000000000000000000000000602082015250565b60006125a5602983611d6e565b91506125b082612549565b604082019050919050565b600060208201905081810360008301526125d481612598565b9050919050565b7f4552433732313a2062616c616e636520717565727920666f7220746865207a6560008201527f726f206164647265737300000000000000000000000000000000000000000000602082015250565b6000612637602a83611d6e565b9150612642826125db565b604082019050919050565b600060208201905081810360008301526126668161262a565b9050919050565b7f4e487b7100000000000000000000000000000000000000000000000000000000600052601160045260246000fd5b60006126a782611e1e565b91506126b283611e1e565b9250817fffffffffffffffffffffffffffffffffffffffffffffffffffffffffffffffff04831182151516156126eb576126ea61266d565b5b828202905092915050565b600061270182611e1e565b915061270c83611e1e565b9250827fffffffffffffffffffffffffffffffffffffffffffffffffffffffffffffffff038211156127415761274061266d565b5b828201905092915050565b7f4e487b7100000000000000000000000000000000000000000000000000000000600052603260045260246000fd5b600061278682611e1e565b91507fffffffffffffffffffffffffffffffffffffffffffffffffffffffffffffffff8214156127b9576127b861266d565b5b600182019050919050565b600081905092915050565b7f7b226e616d65223a20225a4b55546f6b656e2023000000000000000000000000600082015250565b60006128056014836127c4565b9150612810826127cf565b601482019050919050565b600061282682611d63565b61283081856127c4565b9350612840818560208601611d7f565b80840191505092915050565b7f2200000000000000000000000000000000000000000000000000000000000000600082015250565b60006128826001836127c4565b915061288d8261284c565b600182019050919050565b7f226465736372697074696f6e223a20227468697320746f6b656e20697320617760008201527f65736f6d65220000000000000000000000000000000000000000000000000000602082015250565b60006128f46026836127c4565b91506128ff82612898565b602682019050919050565b7f7d00000000000000000000000000000000000000000000000000000000000000600082015250565b60006129406001836127c4565b915061294b8261290a565b600182019050919050565b6000612961826127f8565b915061296d828461281b565b915061297882612875565b9150612983826128e7565b915061298e82612933565b915081905092915050565b7f646174613a6170706c69636174696f6e2f6a736f6e3b6261736536342c000000600082015250565b60006129cf601d836127c4565b91506129da82612999565b601d82019050919050565b60006129f0826129c2565b91506129fc828461281b565b915081905092915050565b60008160601b9050919050565b6000612a1f82612a07565b9050919050565b6000612a3182612a14565b9050919050565b612a49612a4482611ea1565b612a26565b82525050565b6000612a5b8284612a38565b60148201915081905092915050565b600060049050919050565b600081905092915050565b6000819050919050565b600082825260208201905092915050565b6000612aa682611d63565b612ab08185612a8a565b9350612ac0818560208601611d7f565b612ac981611db2565b840191505092915050565b6000612ae08383612a9b565b905092915050565b6000602082019050919050565b6000612b0082612a6a565b612b0a8185612a75565b935083602082028501612b1c85612a80565b8060005b85811015612b585784840389528151612b398582612ad4565b9450612b4483612ae8565b925060208a01995050600181019050612b20565b50829750879550505050505092915050565b60006020820190508181036000830152612b848184612af5565b905092915050565b7f4552433732313a206f70657261746f7220717565727920666f72206e6f6e657860008201527f697374656e7420746f6b656e0000000000000000000000000000000000000000602082015250565b6000612be8602c83611d6e565b9150612bf382612b8c565b604082019050919050565b60006020820190508181036000830152612c1781612bdb565b9050919050565b7f4552433732313a207472616e736665722066726f6d20696e636f72726563742060008201527f6f776e6572000000000000000000000000000000000000000000000000000000602082015250565b6000612c7a602583611d6e565b9150612c8582612c1e565b604082019050919050565b60006020820190508181036000830152612ca981612c6d565b9050919050565b7f4552433732313a207472616e7366657220746f20746865207a65726f2061646460008201527f7265737300000000000000000000000000000000000000000000000000000000602082015250565b6000612d0c602483611d6e565b9150612d1782612cb0565b604082019050919050565b60006020820190508181036000830152612d3b81612cff565b9050919050565b6000612d4d82611e1e565b9150612d5883611e1e565b925082821015612d6b57612d6a61266d565b5b828203905092915050565b7f4552433732313a20617070726f766520746f2063616c6c657200000000000000600082015250565b6000612dac601983611d6e565b9150612db782612d76565b602082019050919050565b60006020820190508181036000830152612ddb81612d9f565b9050919050565b7f4552433732313a207472616e7366657220746f206e6f6e20455243373231526560008201527f63656976657220696d706c656d656e7465720000000000000000000000000000602082015250565b6000612e3e603283611d6e565b9150612e4982612de2565b604082019050919050565b60006020820190508181036000830152612e6d81612e31565b9050919050565b7f4e487b7100000000000000000000000000000000000000000000000000000000600052601260045260246000fd5b6000612eae82611e1e565b9150612eb983611e1e565b925082612ec957612ec8612e74565b5b828204905092915050565b6000612edf82611e1e565b9150612eea83611e1e565b925082612efa57612ef9612e74565b5b828206905092915050565b7f4552433732313a206d696e7420746f20746865207a65726f2061646472657373600082015250565b6000612f3b602083611d6e565b9150612f4682612f05565b602082019050919050565b60006020820190508181036000830152612f6a81612f2e565b9050919050565b7f4552433732313a20746f6b656e20616c7265616479206d696e74656400000000600082015250565b6000612fa7601c83611d6e565b9150612fb282612f71565b602082019050919050565b60006020820190508181036000830152612fd681612f9a565b9050919050565b7f45524337323155524953746f726167653a2055524920736574206f66206e6f6e60008201527f6578697374656e7420746f6b656e000000000000000000000000000000000000602082015250565b6000613039602e83611d6e565b915061304482612fdd565b604082019050919050565b600060208201905081810360008301526130688161302c565b9050919050565b600081519050919050565b600082825260208201905092915050565b60006130968261306f565b6130a0818561307a565b93506130b0818560208601611d7f565b6130b981611db2565b840191505092915050565b60006080820190506130d96000830187611eb3565b6130e66020830186611eb3565b6130f36040830185611fc9565b8181036060830152613105818461308b565b905095945050505050565b60008151905061311f81611cd4565b92915050565b60006020828403121561313b5761313a611c9e565b5b600061314984828501613110565b9150509291505056fe4142434445464748494a4b4c4d4e4f505152535455565758595a6162636465666768696a6b6c6d6e6f707172737475767778797a303132333435363738392b2fa2646970667358221220a6255bc150ddc06fc0229654fdda5d43ed18a985a653ac43b529d14cecb7d1cc64736f6c634300080a0033",
  "linkReferences": {},
  "deployedLinkReferences": {}
}