{
  "contracts/MerkleTree.sol": {
    "MerkleTree": {
      "abi": [
        {
          "inputs": [
            {
              "internalType": "string[4]",
              "name": "transactions",
              "type": "string[4]"
            }
          ],
          "name": "generateTree",
          "outputs": [
            {
              "internalType": "bytes32[4]",
              "name": "",
              "type": "bytes32[4]"
            }
          ],
          "stateMutability": "nonpayable",
          "type": "function"
        },
        {
          "inputs": [],
          "name": "getRoot",
          "outputs": [
            {
              "internalType": "bytes32",
              "name": "",
              "type": "bytes32"
            }
          ],
          "stateMutability": "view",
          "type": "function"
        },
        {
          "inputs": [
            {
              "internalType": "uint256",
              "name": "",
              "type": "uint256"
            }
          ],
          "name": "hashes",
          "outputs": [
            {
              "internalType": "bytes32",
              "name": "",
              "type": "bytes32"
            }
          ],
          "stateMutability": "view",
          "type": "function"
        }
      ],
      "evm": {
        "bytecode": {
          "linkReferences": {},
          "object": "608060405234801561001057600080fd5b50610de3806100206000396000f3fe608060405234801561001057600080fd5b50600436106100415760003560e01c8063501895ae146100465780635ca1e165146100765780637d5f67a114610094575b600080fd5b610060600480360381019061005b91906106b7565b6100c4565b60405161006d91906106fd565b60405180910390f35b61007e6100e8565b60405161008b91906106fd565b60405180910390f35b6100ae60048036038101906100a99190610932565b61011e565b6040516100bb9190610a26565b60405180910390f35b600081815481106100d457600080fd5b906000526020600020016000915090505481565b60008060016000805490506100fd9190610a70565b8154811061010e5761010d610aa4565b5b9060005260206000200154905090565b61012661064b565b600060049050600080805490501461041857600081905060005b60018361014d9190610a70565b8110156102bc57600085826004811061016957610168610aa4565b5b602002015160405160200161017e9190610b4d565b6040516020818303038152906040528051906020012090506000866001846101a69190610b64565b600481106101b7576101b6610aa4565b5b60200201516040516020016101cc9190610b4d565b604051602081830303815290604052805190602001209050600083815481106101f8576101f7610aa4565b5b90600052602060002001548214801561023a5750600060018461021b9190610b64565b8154811061022c5761022b610aa4565b5b906000526020600020015481145b156102535760018461024c9190610b64565b93506102a6565b816000848154811061026857610267610aa4565b5b90600052602060002001819055508060006001856102869190610b64565b8154811061029757610296610aa4565b5b90600052602060002001819055505b50506002816102b59190610b64565b9050610140565b506002826102ca9190610be9565b826102d59190610b64565b811415610317576040517f08c379a000000000000000000000000000000000000000000000000000000000815260040161030e90610c9d565b60405180910390fd5b60008190505b600183600261032c9190610cbd565b6103369190610a70565b811015610411576000838261034b9190610a70565b60026103579190610cbd565b8154811061036857610367610aa4565b5b90600052602060002001546000600185846103839190610a70565b600261038f9190610cbd565b6103999190610b64565b815481106103aa576103a9610aa4565b5b90600052602060002001546040516020016103c6929190610d38565b60405160208183030381529060405280519060200120600082815481106103f0576103ef610aa4565b5b9060005260206000200181905550808061040990610d64565b91505061031d565b50506105a7565b60005b8181101561049c57600084826004811061043857610437610aa4565b5b602002015160405160200161044d9190610b4d565b604051602081830303815290604052805190602001209080600181540180825580915050600190039060005260206000200160009091909190915055808061049490610d64565b91505061041b565b5060005b60008211156105a55760005b6001836104b99190610a70565b8110156105825760008082846104cf9190610b64565b815481106104e0576104df610aa4565b5b90600052602060002001546000600184866104fb9190610b64565b6105059190610b64565b8154811061051657610515610aa4565b5b9060005260206000200154604051602001610532929190610d38565b60405160208183030381529060405280519060200120908060018154018082558091505060019003906000526020600020016000909190919091505560028161057b9190610b64565b90506104ac565b50818161058f9190610b64565b905060028261059e9190610be9565b91506104a0565b505b6040518060800160405280600080815481106105c6576105c5610aa4565b5b9060005260206000200154815260200160006001815481106105eb576105ea610aa4565b5b9060005260206000200154815260200160006002815481106106105761060f610aa4565b5b90600052602060002001548152602001600060038154811061063557610634610aa4565b5b9060005260206000200154815250915050919050565b6040518060800160405280600490602082028036833780820191505090505090565b6000604051905090565b600080fd5b600080fd5b6000819050919050565b61069481610681565b811461069f57600080fd5b50565b6000813590506106b18161068b565b92915050565b6000602082840312156106cd576106cc610677565b5b60006106db848285016106a2565b91505092915050565b6000819050919050565b6106f7816106e4565b82525050565b600060208201905061071260008301846106ee565b92915050565b600080fd5b6000601f19601f8301169050919050565b7f4e487b7100000000000000000000000000000000000000000000000000000000600052604160045260246000fd5b6107668261071d565b810181811067ffffffffffffffff821117156107855761078461072e565b5b80604052505050565b600061079861066d565b90506107a4828261075d565b919050565b600067ffffffffffffffff8211156107c4576107c361072e565b5b602082029050919050565b600080fd5b600080fd5b600067ffffffffffffffff8211156107f4576107f361072e565b5b6107fd8261071d565b9050602081019050919050565b82818337600083830152505050565b600061082c610827846107d9565b61078e565b905082815260208101848484011115610848576108476107d4565b5b61085384828561080a565b509392505050565b600082601f8301126108705761086f610718565b5b8135610880848260208601610819565b91505092915050565b600061089c610897846107a9565b61078e565b905080602084028301858111156108b6576108b56107cf565b5b835b818110156108fd57803567ffffffffffffffff8111156108db576108da610718565b5b8086016108e8898261085b565b855260208501945050506020810190506108b8565b5050509392505050565b600082601f83011261091c5761091b610718565b5b6004610929848285610889565b91505092915050565b60006020828403121561094857610947610677565b5b600082013567ffffffffffffffff8111156109665761096561067c565b5b61097284828501610907565b91505092915050565b600060049050919050565b600081905092915050565b6000819050919050565b6109a4816106e4565b82525050565b60006109b6838361099b565b60208301905092915050565b6000602082019050919050565b6109d88161097b565b6109e28184610986565b92506109ed82610991565b8060005b83811015610a1e578151610a0587826109aa565b9650610a10836109c2565b9250506001810190506109f1565b505050505050565b6000608082019050610a3b60008301846109cf565b92915050565b7f4e487b7100000000000000000000000000000000000000000000000000000000600052601160045260246000fd5b6000610a7b82610681565b9150610a8683610681565b925082821015610a9957610a98610a41565b5b828203905092915050565b7f4e487b7100000000000000000000000000000000000000000000000000000000600052603260045260246000fd5b600081519050919050565b600081905092915050565b60005b83811015610b07578082015181840152602081019050610aec565b83811115610b16576000848401525b50505050565b6000610b2782610ad3565b610b318185610ade565b9350610b41818560208601610ae9565b80840191505092915050565b6000610b598284610b1c565b915081905092915050565b6000610b6f82610681565b9150610b7a83610681565b9250827fffffffffffffffffffffffffffffffffffffffffffffffffffffffffffffffff03821115610baf57610bae610a41565b5b828201905092915050565b7f4e487b7100000000000000000000000000000000000000000000000000000000600052601260045260246000fd5b6000610bf482610681565b9150610bff83610681565b925082610c0f57610c0e610bba565b5b828204905092915050565b600082825260208201905092915050565b7f4e6f206c656166206368616e6765642c207472656520616c726561647920757060008201527f20746f20646174652e0000000000000000000000000000000000000000000000602082015250565b6000610c87602983610c1a565b9150610c9282610c2b565b604082019050919050565b60006020820190508181036000830152610cb681610c7a565b9050919050565b6000610cc882610681565b9150610cd383610681565b9250817fffffffffffffffffffffffffffffffffffffffffffffffffffffffffffffffff0483118215151615610d0c57610d0b610a41565b5b828202905092915050565b6000819050919050565b610d32610d2d826106e4565b610d17565b82525050565b6000610d448285610d21565b602082019150610d548284610d21565b6020820191508190509392505050565b6000610d6f82610681565b91507fffffffffffffffffffffffffffffffffffffffffffffffffffffffffffffffff821415610da257610da1610a41565b5b60018201905091905056fea2646970667358221220ee3157009da653dd3fbc78017cce5ffad15ee5c0623e398ef58b15ee8a646c3464736f6c634300080a0033",
          "opcodes": "PUSH1 0x80 PUSH1 0x40 MSTORE CALLVALUE DUP1 ISZERO PUSH2 0x10 JUMPI PUSH1 0x0 DUP1 REVERT JUMPDEST POP PUSH2 0xDE3 DUP1 PUSH2 0x20 PUSH1 0x0 CODECOPY PUSH1 0x0 RETURN INVALID PUSH1 0x80 PUSH1 0x40 MSTORE CALLVALUE DUP1 ISZERO PUSH2 0x10 JUMPI PUSH1 0x0 DUP1 REVERT JUMPDEST POP PUSH1 0x4 CALLDATASIZE LT PUSH2 0x41 JUMPI PUSH1 0x0 CALLDATALOAD PUSH1 0xE0 SHR DUP1 PUSH4 0x501895AE EQ PUSH2 0x46 JUMPI DUP1 PUSH4 0x5CA1E165 EQ PUSH2 0x76 JUMPI DUP1 PUSH4 0x7D5F67A1 EQ PUSH2 0x94 JUMPI JUMPDEST PUSH1 0x0 DUP1 REVERT JUMPDEST PUSH2 0x60 PUSH1 0x4 DUP1 CALLDATASIZE SUB DUP2 ADD SWAP1 PUSH2 0x5B SWAP2 SWAP1 PUSH2 0x6B7 JUMP JUMPDEST PUSH2 0xC4 JUMP JUMPDEST PUSH1 0x40 MLOAD PUSH2 0x6D SWAP2 SWAP1 PUSH2 0x6FD JUMP JUMPDEST PUSH1 0x40 MLOAD DUP1 SWAP2 SUB SWAP1 RETURN JUMPDEST PUSH2 0x7E PUSH2 0xE8 JUMP JUMPDEST PUSH1 0x40 MLOAD PUSH2 0x8B SWAP2 SWAP1 PUSH2 0x6FD JUMP JUMPDEST PUSH1 0x40 MLOAD DUP1 SWAP2 SUB SWAP1 RETURN JUMPDEST PUSH2 0xAE PUSH1 0x4 DUP1 CALLDATASIZE SUB DUP2 ADD SWAP1 PUSH2 0xA9 SWAP2 SWAP1 PUSH2 0x932 JUMP JUMPDEST PUSH2 0x11E JUMP JUMPDEST PUSH1 0x40 MLOAD PUSH2 0xBB SWAP2 SWAP1 PUSH2 0xA26 JUMP JUMPDEST PUSH1 0x40 MLOAD DUP1 SWAP2 SUB SWAP1 RETURN JUMPDEST PUSH1 0x0 DUP2 DUP2 SLOAD DUP2 LT PUSH2 0xD4 JUMPI PUSH1 0x0 DUP1 REVERT JUMPDEST SWAP1 PUSH1 0x0 MSTORE PUSH1 0x20 PUSH1 0x0 KECCAK256 ADD PUSH1 0x0 SWAP2 POP SWAP1 POP SLOAD DUP2 JUMP JUMPDEST PUSH1 0x0 DUP1 PUSH1 0x1 PUSH1 0x0 DUP1 SLOAD SWAP1 POP PUSH2 0xFD SWAP2 SWAP1 PUSH2 0xA70 JUMP JUMPDEST DUP2 SLOAD DUP2 LT PUSH2 0x10E JUMPI PUSH2 0x10D PUSH2 0xAA4 JUMP JUMPDEST JUMPDEST SWAP1 PUSH1 0x0 MSTORE PUSH1 0x20 PUSH1 0x0 KECCAK256 ADD SLOAD SWAP1 POP SWAP1 JUMP JUMPDEST PUSH2 0x126 PUSH2 0x64B JUMP JUMPDEST PUSH1 0x0 PUSH1 0x4 SWAP1 POP PUSH1 0x0 DUP1 DUP1 SLOAD SWAP1 POP EQ PUSH2 0x418 JUMPI PUSH1 0x0 DUP2 SWAP1 POP PUSH1 0x0 JUMPDEST PUSH1 0x1 DUP4 PUSH2 0x14D SWAP2 SWAP1 PUSH2 0xA70 JUMP JUMPDEST DUP2 LT ISZERO PUSH2 0x2BC JUMPI PUSH1 0x0 DUP6 DUP3 PUSH1 0x4 DUP2 LT PUSH2 0x169 JUMPI PUSH2 0x168 PUSH2 0xAA4 JUMP JUMPDEST JUMPDEST PUSH1 0x20 MUL ADD MLOAD PUSH1 0x40 MLOAD PUSH1 0x20 ADD PUSH2 0x17E SWAP2 SWAP1 PUSH2 0xB4D JUMP JUMPDEST PUSH1 0x40 MLOAD PUSH1 0x20 DUP2 DUP4 SUB SUB DUP2 MSTORE SWAP1 PUSH1 0x40 MSTORE DUP1 MLOAD SWAP1 PUSH1 0x20 ADD KECCAK256 SWAP1 POP PUSH1 0x0 DUP7 PUSH1 0x1 DUP5 PUSH2 0x1A6 SWAP2 SWAP1 PUSH2 0xB64 JUMP JUMPDEST PUSH1 0x4 DUP2 LT PUSH2 0x1B7 JUMPI PUSH2 0x1B6 PUSH2 0xAA4 JUMP JUMPDEST JUMPDEST PUSH1 0x20 MUL ADD MLOAD PUSH1 0x40 MLOAD PUSH1 0x20 ADD PUSH2 0x1CC SWAP2 SWAP1 PUSH2 0xB4D JUMP JUMPDEST PUSH1 0x40 MLOAD PUSH1 0x20 DUP2 DUP4 SUB SUB DUP2 MSTORE SWAP1 PUSH1 0x40 MSTORE DUP1 MLOAD SWAP1 PUSH1 0x20 ADD KECCAK256 SWAP1 POP PUSH1 0x0 DUP4 DUP2 SLOAD DUP2 LT PUSH2 0x1F8 JUMPI PUSH2 0x1F7 PUSH2 0xAA4 JUMP JUMPDEST JUMPDEST SWAP1 PUSH1 0x0 MSTORE PUSH1 0x20 PUSH1 0x0 KECCAK256 ADD SLOAD DUP3 EQ DUP1 ISZERO PUSH2 0x23A JUMPI POP PUSH1 0x0 PUSH1 0x1 DUP5 PUSH2 0x21B SWAP2 SWAP1 PUSH2 0xB64 JUMP JUMPDEST DUP2 SLOAD DUP2 LT PUSH2 0x22C JUMPI PUSH2 0x22B PUSH2 0xAA4 JUMP JUMPDEST JUMPDEST SWAP1 PUSH1 0x0 MSTORE PUSH1 0x20 PUSH1 0x0 KECCAK256 ADD SLOAD DUP2 EQ JUMPDEST ISZERO PUSH2 0x253 JUMPI PUSH1 0x1 DUP5 PUSH2 0x24C SWAP2 SWAP1 PUSH2 0xB64 JUMP JUMPDEST SWAP4 POP PUSH2 0x2A6 JUMP JUMPDEST DUP2 PUSH1 0x0 DUP5 DUP2 SLOAD DUP2 LT PUSH2 0x268 JUMPI PUSH2 0x267 PUSH2 0xAA4 JUMP JUMPDEST JUMPDEST SWAP1 PUSH1 0x0 MSTORE PUSH1 0x20 PUSH1 0x0 KECCAK256 ADD DUP2 SWAP1 SSTORE POP DUP1 PUSH1 0x0 PUSH1 0x1 DUP6 PUSH2 0x286 SWAP2 SWAP1 PUSH2 0xB64 JUMP JUMPDEST DUP2 SLOAD DUP2 LT PUSH2 0x297 JUMPI PUSH2 0x296 PUSH2 0xAA4 JUMP JUMPDEST JUMPDEST SWAP1 PUSH1 0x0 MSTORE PUSH1 0x20 PUSH1 0x0 KECCAK256 ADD DUP2 SWAP1 SSTORE POP JUMPDEST POP POP PUSH1 0x2 DUP2 PUSH2 0x2B5 SWAP2 SWAP1 PUSH2 0xB64 JUMP JUMPDEST SWAP1 POP PUSH2 0x140 JUMP JUMPDEST POP PUSH1 0x2 DUP3 PUSH2 0x2CA SWAP2 SWAP1 PUSH2 0xBE9 JUMP JUMPDEST DUP3 PUSH2 0x2D5 SWAP2 SWAP1 PUSH2 0xB64 JUMP JUMPDEST DUP2 EQ ISZERO PUSH2 0x317 JUMPI PUSH1 0x40 MLOAD PUSH32 0x8C379A000000000000000000000000000000000000000000000000000000000 DUP2 MSTORE PUSH1 0x4 ADD PUSH2 0x30E SWAP1 PUSH2 0xC9D JUMP JUMPDEST PUSH1 0x40 MLOAD DUP1 SWAP2 SUB SWAP1 REVERT JUMPDEST PUSH1 0x0 DUP2 SWAP1 POP JUMPDEST PUSH1 0x1 DUP4 PUSH1 0x2 PUSH2 0x32C SWAP2 SWAP1 PUSH2 0xCBD JUMP JUMPDEST PUSH2 0x336 SWAP2 SWAP1 PUSH2 0xA70 JUMP JUMPDEST DUP2 LT ISZERO PUSH2 0x411 JUMPI PUSH1 0x0 DUP4 DUP3 PUSH2 0x34B SWAP2 SWAP1 PUSH2 0xA70 JUMP JUMPDEST PUSH1 0x2 PUSH2 0x357 SWAP2 SWAP1 PUSH2 0xCBD JUMP JUMPDEST DUP2 SLOAD DUP2 LT PUSH2 0x368 JUMPI PUSH2 0x367 PUSH2 0xAA4 JUMP JUMPDEST JUMPDEST SWAP1 PUSH1 0x0 MSTORE PUSH1 0x20 PUSH1 0x0 KECCAK256 ADD SLOAD PUSH1 0x0 PUSH1 0x1 DUP6 DUP5 PUSH2 0x383 SWAP2 SWAP1 PUSH2 0xA70 JUMP JUMPDEST PUSH1 0x2 PUSH2 0x38F SWAP2 SWAP1 PUSH2 0xCBD JUMP JUMPDEST PUSH2 0x399 SWAP2 SWAP1 PUSH2 0xB64 JUMP JUMPDEST DUP2 SLOAD DUP2 LT PUSH2 0x3AA JUMPI PUSH2 0x3A9 PUSH2 0xAA4 JUMP JUMPDEST JUMPDEST SWAP1 PUSH1 0x0 MSTORE PUSH1 0x20 PUSH1 0x0 KECCAK256 ADD SLOAD PUSH1 0x40 MLOAD PUSH1 0x20 ADD PUSH2 0x3C6 SWAP3 SWAP2 SWAP1 PUSH2 0xD38 JUMP JUMPDEST PUSH1 0x40 MLOAD PUSH1 0x20 DUP2 DUP4 SUB SUB DUP2 MSTORE SWAP1 PUSH1 0x40 MSTORE DUP1 MLOAD SWAP1 PUSH1 0x20 ADD KECCAK256 PUSH1 0x0 DUP3 DUP2 SLOAD DUP2 LT PUSH2 0x3F0 JUMPI PUSH2 0x3EF PUSH2 0xAA4 JUMP JUMPDEST JUMPDEST SWAP1 PUSH1 0x0 MSTORE PUSH1 0x20 PUSH1 0x0 KECCAK256 ADD DUP2 SWAP1 SSTORE POP DUP1 DUP1 PUSH2 0x409 SWAP1 PUSH2 0xD64 JUMP JUMPDEST SWAP2 POP POP PUSH2 0x31D JUMP JUMPDEST POP POP PUSH2 0x5A7 JUMP JUMPDEST PUSH1 0x0 JUMPDEST DUP2 DUP2 LT ISZERO PUSH2 0x49C JUMPI PUSH1 0x0 DUP5 DUP3 PUSH1 0x4 DUP2 LT PUSH2 0x438 JUMPI PUSH2 0x437 PUSH2 0xAA4 JUMP JUMPDEST JUMPDEST PUSH1 0x20 MUL ADD MLOAD PUSH1 0x40 MLOAD PUSH1 0x20 ADD PUSH2 0x44D SWAP2 SWAP1 PUSH2 0xB4D JUMP JUMPDEST PUSH1 0x40 MLOAD PUSH1 0x20 DUP2 DUP4 SUB SUB DUP2 MSTORE SWAP1 PUSH1 0x40 MSTORE DUP1 MLOAD SWAP1 PUSH1 0x20 ADD KECCAK256 SWAP1 DUP1 PUSH1 0x1 DUP2 SLOAD ADD DUP1 DUP3 SSTORE DUP1 SWAP2 POP POP PUSH1 0x1 SWAP1 SUB SWAP1 PUSH1 0x0 MSTORE PUSH1 0x20 PUSH1 0x0 KECCAK256 ADD PUSH1 0x0 SWAP1 SWAP2 SWAP1 SWAP2 SWAP1 SWAP2 POP SSTORE DUP1 DUP1 PUSH2 0x494 SWAP1 PUSH2 0xD64 JUMP JUMPDEST SWAP2 POP POP PUSH2 0x41B JUMP JUMPDEST POP PUSH1 0x0 JUMPDEST PUSH1 0x0 DUP3 GT ISZERO PUSH2 0x5A5 JUMPI PUSH1 0x0 JUMPDEST PUSH1 0x1 DUP4 PUSH2 0x4B9 SWAP2 SWAP1 PUSH2 0xA70 JUMP JUMPDEST DUP2 LT ISZERO PUSH2 0x582 JUMPI PUSH1 0x0 DUP1 DUP3 DUP5 PUSH2 0x4CF SWAP2 SWAP1 PUSH2 0xB64 JUMP JUMPDEST DUP2 SLOAD DUP2 LT PUSH2 0x4E0 JUMPI PUSH2 0x4DF PUSH2 0xAA4 JUMP JUMPDEST JUMPDEST SWAP1 PUSH1 0x0 MSTORE PUSH1 0x20 PUSH1 0x0 KECCAK256 ADD SLOAD PUSH1 0x0 PUSH1 0x1 DUP5 DUP7 PUSH2 0x4FB SWAP2 SWAP1 PUSH2 0xB64 JUMP JUMPDEST PUSH2 0x505 SWAP2 SWAP1 PUSH2 0xB64 JUMP JUMPDEST DUP2 SLOAD DUP2 LT PUSH2 0x516 JUMPI PUSH2 0x515 PUSH2 0xAA4 JUMP JUMPDEST JUMPDEST SWAP1 PUSH1 0x0 MSTORE PUSH1 0x20 PUSH1 0x0 KECCAK256 ADD SLOAD PUSH1 0x40 MLOAD PUSH1 0x20 ADD PUSH2 0x532 SWAP3 SWAP2 SWAP1 PUSH2 0xD38 JUMP JUMPDEST PUSH1 0x40 MLOAD PUSH1 0x20 DUP2 DUP4 SUB SUB DUP2 MSTORE SWAP1 PUSH1 0x40 MSTORE DUP1 MLOAD SWAP1 PUSH1 0x20 ADD KECCAK256 SWAP1 DUP1 PUSH1 0x1 DUP2 SLOAD ADD DUP1 DUP3 SSTORE DUP1 SWAP2 POP POP PUSH1 0x1 SWAP1 SUB SWAP1 PUSH1 0x0 MSTORE PUSH1 0x20 PUSH1 0x0 KECCAK256 ADD PUSH1 0x0 SWAP1 SWAP2 SWAP1 SWAP2 SWAP1 SWAP2 POP SSTORE PUSH1 0x2 DUP2 PUSH2 0x57B SWAP2 SWAP1 PUSH2 0xB64 JUMP JUMPDEST SWAP1 POP PUSH2 0x4AC JUMP JUMPDEST POP DUP2 DUP2 PUSH2 0x58F SWAP2 SWAP1 PUSH2 0xB64 JUMP JUMPDEST SWAP1 POP PUSH1 0x2 DUP3 PUSH2 0x59E SWAP2 SWAP1 PUSH2 0xBE9 JUMP JUMPDEST SWAP2 POP PUSH2 0x4A0 JUMP JUMPDEST POP JUMPDEST PUSH1 0x40 MLOAD DUP1 PUSH1 0x80 ADD PUSH1 0x40 MSTORE DUP1 PUSH1 0x0 DUP1 DUP2 SLOAD DUP2 LT PUSH2 0x5C6 JUMPI PUSH2 0x5C5 PUSH2 0xAA4 JUMP JUMPDEST JUMPDEST SWAP1 PUSH1 0x0 MSTORE PUSH1 0x20 PUSH1 0x0 KECCAK256 ADD SLOAD DUP2 MSTORE PUSH1 0x20 ADD PUSH1 0x0 PUSH1 0x1 DUP2 SLOAD DUP2 LT PUSH2 0x5EB JUMPI PUSH2 0x5EA PUSH2 0xAA4 JUMP JUMPDEST JUMPDEST SWAP1 PUSH1 0x0 MSTORE PUSH1 0x20 PUSH1 0x0 KECCAK256 ADD SLOAD DUP2 MSTORE PUSH1 0x20 ADD PUSH1 0x0 PUSH1 0x2 DUP2 SLOAD DUP2 LT PUSH2 0x610 JUMPI PUSH2 0x60F PUSH2 0xAA4 JUMP JUMPDEST JUMPDEST SWAP1 PUSH1 0x0 MSTORE PUSH1 0x20 PUSH1 0x0 KECCAK256 ADD SLOAD DUP2 MSTORE PUSH1 0x20 ADD PUSH1 0x0 PUSH1 0x3 DUP2 SLOAD DUP2 LT PUSH2 0x635 JUMPI PUSH2 0x634 PUSH2 0xAA4 JUMP JUMPDEST JUMPDEST SWAP1 PUSH1 0x0 MSTORE PUSH1 0x20 PUSH1 0x0 KECCAK256 ADD SLOAD DUP2 MSTORE POP SWAP2 POP POP SWAP2 SWAP1 POP JUMP JUMPDEST PUSH1 0x40 MLOAD DUP1 PUSH1 0x80 ADD PUSH1 0x40 MSTORE DUP1 PUSH1 0x4 SWAP1 PUSH1 0x20 DUP3 MUL DUP1 CALLDATASIZE DUP4 CALLDATACOPY DUP1 DUP3 ADD SWAP2 POP POP SWAP1 POP POP SWAP1 JUMP JUMPDEST PUSH1 0x0 PUSH1 0x40 MLOAD SWAP1 POP SWAP1 JUMP JUMPDEST PUSH1 0x0 DUP1 REVERT JUMPDEST PUSH1 0x0 DUP1 REVERT JUMPDEST PUSH1 0x0 DUP2 SWAP1 POP SWAP2 SWAP1 POP JUMP JUMPDEST PUSH2 0x694 DUP2 PUSH2 0x681 JUMP JUMPDEST DUP2 EQ PUSH2 0x69F JUMPI PUSH1 0x0 DUP1 REVERT JUMPDEST POP JUMP JUMPDEST PUSH1 0x0 DUP2 CALLDATALOAD SWAP1 POP PUSH2 0x6B1 DUP2 PUSH2 0x68B JUMP JUMPDEST SWAP3 SWAP2 POP POP JUMP JUMPDEST PUSH1 0x0 PUSH1 0x20 DUP3 DUP5 SUB SLT ISZERO PUSH2 0x6CD JUMPI PUSH2 0x6CC PUSH2 0x677 JUMP JUMPDEST JUMPDEST PUSH1 0x0 PUSH2 0x6DB DUP5 DUP3 DUP6 ADD PUSH2 0x6A2 JUMP JUMPDEST SWAP2 POP POP SWAP3 SWAP2 POP POP JUMP JUMPDEST PUSH1 0x0 DUP2 SWAP1 POP SWAP2 SWAP1 POP JUMP JUMPDEST PUSH2 0x6F7 DUP2 PUSH2 0x6E4 JUMP JUMPDEST DUP3 MSTORE POP POP JUMP JUMPDEST PUSH1 0x0 PUSH1 0x20 DUP3 ADD SWAP1 POP PUSH2 0x712 PUSH1 0x0 DUP4 ADD DUP5 PUSH2 0x6EE JUMP JUMPDEST SWAP3 SWAP2 POP POP JUMP JUMPDEST PUSH1 0x0 DUP1 REVERT JUMPDEST PUSH1 0x0 PUSH1 0x1F NOT PUSH1 0x1F DUP4 ADD AND SWAP1 POP SWAP2 SWAP1 POP JUMP JUMPDEST PUSH32 0x4E487B7100000000000000000000000000000000000000000000000000000000 PUSH1 0x0 MSTORE PUSH1 0x41 PUSH1 0x4 MSTORE PUSH1 0x24 PUSH1 0x0 REVERT JUMPDEST PUSH2 0x766 DUP3 PUSH2 0x71D JUMP JUMPDEST DUP2 ADD DUP2 DUP2 LT PUSH8 0xFFFFFFFFFFFFFFFF DUP3 GT OR ISZERO PUSH2 0x785 JUMPI PUSH2 0x784 PUSH2 0x72E JUMP JUMPDEST JUMPDEST DUP1 PUSH1 0x40 MSTORE POP POP POP JUMP JUMPDEST PUSH1 0x0 PUSH2 0x798 PUSH2 0x66D JUMP JUMPDEST SWAP1 POP PUSH2 0x7A4 DUP3 DUP3 PUSH2 0x75D JUMP JUMPDEST SWAP2 SWAP1 POP JUMP JUMPDEST PUSH1 0x0 PUSH8 0xFFFFFFFFFFFFFFFF DUP3 GT ISZERO PUSH2 0x7C4 JUMPI PUSH2 0x7C3 PUSH2 0x72E JUMP JUMPDEST JUMPDEST PUSH1 0x20 DUP3 MUL SWAP1 POP SWAP2 SWAP1 POP JUMP JUMPDEST PUSH1 0x0 DUP1 REVERT JUMPDEST PUSH1 0x0 DUP1 REVERT JUMPDEST PUSH1 0x0 PUSH8 0xFFFFFFFFFFFFFFFF DUP3 GT ISZERO PUSH2 0x7F4 JUMPI PUSH2 0x7F3 PUSH2 0x72E JUMP JUMPDEST JUMPDEST PUSH2 0x7FD DUP3 PUSH2 0x71D JUMP JUMPDEST SWAP1 POP PUSH1 0x20 DUP2 ADD SWAP1 POP SWAP2 SWAP1 POP JUMP JUMPDEST DUP3 DUP2 DUP4 CALLDATACOPY PUSH1 0x0 DUP4 DUP4 ADD MSTORE POP POP POP JUMP JUMPDEST PUSH1 0x0 PUSH2 0x82C PUSH2 0x827 DUP5 PUSH2 0x7D9 JUMP JUMPDEST PUSH2 0x78E JUMP JUMPDEST SWAP1 POP DUP3 DUP2 MSTORE PUSH1 0x20 DUP2 ADD DUP5 DUP5 DUP5 ADD GT ISZERO PUSH2 0x848 JUMPI PUSH2 0x847 PUSH2 0x7D4 JUMP JUMPDEST JUMPDEST PUSH2 0x853 DUP5 DUP3 DUP6 PUSH2 0x80A JUMP JUMPDEST POP SWAP4 SWAP3 POP POP POP JUMP JUMPDEST PUSH1 0x0 DUP3 PUSH1 0x1F DUP4 ADD SLT PUSH2 0x870 JUMPI PUSH2 0x86F PUSH2 0x718 JUMP JUMPDEST JUMPDEST DUP2 CALLDATALOAD PUSH2 0x880 DUP5 DUP3 PUSH1 0x20 DUP7 ADD PUSH2 0x819 JUMP JUMPDEST SWAP2 POP POP SWAP3 SWAP2 POP POP JUMP JUMPDEST PUSH1 0x0 PUSH2 0x89C PUSH2 0x897 DUP5 PUSH2 0x7A9 JUMP JUMPDEST PUSH2 0x78E JUMP JUMPDEST SWAP1 POP DUP1 PUSH1 0x20 DUP5 MUL DUP4 ADD DUP6 DUP2 GT ISZERO PUSH2 0x8B6 JUMPI PUSH2 0x8B5 PUSH2 0x7CF JUMP JUMPDEST JUMPDEST DUP4 JUMPDEST DUP2 DUP2 LT ISZERO PUSH2 0x8FD JUMPI DUP1 CALLDATALOAD PUSH8 0xFFFFFFFFFFFFFFFF DUP2 GT ISZERO PUSH2 0x8DB JUMPI PUSH2 0x8DA PUSH2 0x718 JUMP JUMPDEST JUMPDEST DUP1 DUP7 ADD PUSH2 0x8E8 DUP10 DUP3 PUSH2 0x85B JUMP JUMPDEST DUP6 MSTORE PUSH1 0x20 DUP6 ADD SWAP5 POP POP POP PUSH1 0x20 DUP2 ADD SWAP1 POP PUSH2 0x8B8 JUMP JUMPDEST POP POP POP SWAP4 SWAP3 POP POP POP JUMP JUMPDEST PUSH1 0x0 DUP3 PUSH1 0x1F DUP4 ADD SLT PUSH2 0x91C JUMPI PUSH2 0x91B PUSH2 0x718 JUMP JUMPDEST JUMPDEST PUSH1 0x4 PUSH2 0x929 DUP5 DUP3 DUP6 PUSH2 0x889 JUMP JUMPDEST SWAP2 POP POP SWAP3 SWAP2 POP POP JUMP JUMPDEST PUSH1 0x0 PUSH1 0x20 DUP3 DUP5 SUB SLT ISZERO PUSH2 0x948 JUMPI PUSH2 0x947 PUSH2 0x677 JUMP JUMPDEST JUMPDEST PUSH1 0x0 DUP3 ADD CALLDATALOAD PUSH8 0xFFFFFFFFFFFFFFFF DUP2 GT ISZERO PUSH2 0x966 JUMPI PUSH2 0x965 PUSH2 0x67C JUMP JUMPDEST JUMPDEST PUSH2 0x972 DUP5 DUP3 DUP6 ADD PUSH2 0x907 JUMP JUMPDEST SWAP2 POP POP SWAP3 SWAP2 POP POP JUMP JUMPDEST PUSH1 0x0 PUSH1 0x4 SWAP1 POP SWAP2 SWAP1 POP JUMP JUMPDEST PUSH1 0x0 DUP2 SWAP1 POP SWAP3 SWAP2 POP POP JUMP JUMPDEST PUSH1 0x0 DUP2 SWAP1 POP SWAP2 SWAP1 POP JUMP JUMPDEST PUSH2 0x9A4 DUP2 PUSH2 0x6E4 JUMP JUMPDEST DUP3 MSTORE POP POP JUMP JUMPDEST PUSH1 0x0 PUSH2 0x9B6 DUP4 DUP4 PUSH2 0x99B JUMP JUMPDEST PUSH1 0x20 DUP4 ADD SWAP1 POP SWAP3 SWAP2 POP POP JUMP JUMPDEST PUSH1 0x0 PUSH1 0x20 DUP3 ADD SWAP1 POP SWAP2 SWAP1 POP JUMP JUMPDEST PUSH2 0x9D8 DUP2 PUSH2 0x97B JUMP JUMPDEST PUSH2 0x9E2 DUP2 DUP5 PUSH2 0x986 JUMP JUMPDEST SWAP3 POP PUSH2 0x9ED DUP3 PUSH2 0x991 JUMP JUMPDEST DUP1 PUSH1 0x0 JUMPDEST DUP4 DUP2 LT ISZERO PUSH2 0xA1E JUMPI DUP2 MLOAD PUSH2 0xA05 DUP8 DUP3 PUSH2 0x9AA JUMP JUMPDEST SWAP7 POP PUSH2 0xA10 DUP4 PUSH2 0x9C2 JUMP JUMPDEST SWAP3 POP POP PUSH1 0x1 DUP2 ADD SWAP1 POP PUSH2 0x9F1 JUMP JUMPDEST POP POP POP POP POP POP JUMP JUMPDEST PUSH1 0x0 PUSH1 0x80 DUP3 ADD SWAP1 POP PUSH2 0xA3B PUSH1 0x0 DUP4 ADD DUP5 PUSH2 0x9CF JUMP JUMPDEST SWAP3 SWAP2 POP POP JUMP JUMPDEST PUSH32 0x4E487B7100000000000000000000000000000000000000000000000000000000 PUSH1 0x0 MSTORE PUSH1 0x11 PUSH1 0x4 MSTORE PUSH1 0x24 PUSH1 0x0 REVERT JUMPDEST PUSH1 0x0 PUSH2 0xA7B DUP3 PUSH2 0x681 JUMP JUMPDEST SWAP2 POP PUSH2 0xA86 DUP4 PUSH2 0x681 JUMP JUMPDEST SWAP3 POP DUP3 DUP3 LT ISZERO PUSH2 0xA99 JUMPI PUSH2 0xA98 PUSH2 0xA41 JUMP JUMPDEST JUMPDEST DUP3 DUP3 SUB SWAP1 POP SWAP3 SWAP2 POP POP JUMP JUMPDEST PUSH32 0x4E487B7100000000000000000000000000000000000000000000000000000000 PUSH1 0x0 MSTORE PUSH1 0x32 PUSH1 0x4 MSTORE PUSH1 0x24 PUSH1 0x0 REVERT JUMPDEST PUSH1 0x0 DUP2 MLOAD SWAP1 POP SWAP2 SWAP1 POP JUMP JUMPDEST PUSH1 0x0 DUP2 SWAP1 POP SWAP3 SWAP2 POP POP JUMP JUMPDEST PUSH1 0x0 JUMPDEST DUP4 DUP2 LT ISZERO PUSH2 0xB07 JUMPI DUP1 DUP3 ADD MLOAD DUP2 DUP5 ADD MSTORE PUSH1 0x20 DUP2 ADD SWAP1 POP PUSH2 0xAEC JUMP JUMPDEST DUP4 DUP2 GT ISZERO PUSH2 0xB16 JUMPI PUSH1 0x0 DUP5 DUP5 ADD MSTORE JUMPDEST POP POP POP POP JUMP JUMPDEST PUSH1 0x0 PUSH2 0xB27 DUP3 PUSH2 0xAD3 JUMP JUMPDEST PUSH2 0xB31 DUP2 DUP6 PUSH2 0xADE JUMP JUMPDEST SWAP4 POP PUSH2 0xB41 DUP2 DUP6 PUSH1 0x20 DUP7 ADD PUSH2 0xAE9 JUMP JUMPDEST DUP1 DUP5 ADD SWAP2 POP POP SWAP3 SWAP2 POP POP JUMP JUMPDEST PUSH1 0x0 PUSH2 0xB59 DUP3 DUP5 PUSH2 0xB1C JUMP JUMPDEST SWAP2 POP DUP2 SWAP1 POP SWAP3 SWAP2 POP POP JUMP JUMPDEST PUSH1 0x0 PUSH2 0xB6F DUP3 PUSH2 0x681 JUMP JUMPDEST SWAP2 POP PUSH2 0xB7A DUP4 PUSH2 0x681 JUMP JUMPDEST SWAP3 POP DUP3 PUSH32 0xFFFFFFFFFFFFFFFFFFFFFFFFFFFFFFFFFFFFFFFFFFFFFFFFFFFFFFFFFFFFFFFF SUB DUP3 GT ISZERO PUSH2 0xBAF JUMPI PUSH2 0xBAE PUSH2 0xA41 JUMP JUMPDEST JUMPDEST DUP3 DUP3 ADD SWAP1 POP SWAP3 SWAP2 POP POP JUMP JUMPDEST PUSH32 0x4E487B7100000000000000000000000000000000000000000000000000000000 PUSH1 0x0 MSTORE PUSH1 0x12 PUSH1 0x4 MSTORE PUSH1 0x24 PUSH1 0x0 REVERT JUMPDEST PUSH1 0x0 PUSH2 0xBF4 DUP3 PUSH2 0x681 JUMP JUMPDEST SWAP2 POP PUSH2 0xBFF DUP4 PUSH2 0x681 JUMP JUMPDEST SWAP3 POP DUP3 PUSH2 0xC0F JUMPI PUSH2 0xC0E PUSH2 0xBBA JUMP JUMPDEST JUMPDEST DUP3 DUP3 DIV SWAP1 POP SWAP3 SWAP2 POP POP JUMP JUMPDEST PUSH1 0x0 DUP3 DUP3 MSTORE PUSH1 0x20 DUP3 ADD SWAP1 POP SWAP3 SWAP2 POP POP JUMP JUMPDEST PUSH32 0x4E6F206C656166206368616E6765642C207472656520616C7265616479207570 PUSH1 0x0 DUP3 ADD MSTORE PUSH32 0x20746F20646174652E0000000000000000000000000000000000000000000000 PUSH1 0x20 DUP3 ADD MSTORE POP JUMP JUMPDEST PUSH1 0x0 PUSH2 0xC87 PUSH1 0x29 DUP4 PUSH2 0xC1A JUMP JUMPDEST SWAP2 POP PUSH2 0xC92 DUP3 PUSH2 0xC2B JUMP JUMPDEST PUSH1 0x40 DUP3 ADD SWAP1 POP SWAP2 SWAP1 POP JUMP JUMPDEST PUSH1 0x0 PUSH1 0x20 DUP3 ADD SWAP1 POP DUP2 DUP2 SUB PUSH1 0x0 DUP4 ADD MSTORE PUSH2 0xCB6 DUP2 PUSH2 0xC7A JUMP JUMPDEST SWAP1 POP SWAP2 SWAP1 POP JUMP JUMPDEST PUSH1 0x0 PUSH2 0xCC8 DUP3 PUSH2 0x681 JUMP JUMPDEST SWAP2 POP PUSH2 0xCD3 DUP4 PUSH2 0x681 JUMP JUMPDEST SWAP3 POP DUP2 PUSH32 0xFFFFFFFFFFFFFFFFFFFFFFFFFFFFFFFFFFFFFFFFFFFFFFFFFFFFFFFFFFFFFFFF DIV DUP4 GT DUP3 ISZERO ISZERO AND ISZERO PUSH2 0xD0C JUMPI PUSH2 0xD0B PUSH2 0xA41 JUMP JUMPDEST JUMPDEST DUP3 DUP3 MUL SWAP1 POP SWAP3 SWAP2 POP POP JUMP JUMPDEST PUSH1 0x0 DUP2 SWAP1 POP SWAP2 SWAP1 POP JUMP JUMPDEST PUSH2 0xD32 PUSH2 0xD2D DUP3 PUSH2 0x6E4 JUMP JUMPDEST PUSH2 0xD17 JUMP JUMPDEST DUP3 MSTORE POP POP JUMP JUMPDEST PUSH1 0x0 PUSH2 0xD44 DUP3 DUP6 PUSH2 0xD21 JUMP JUMPDEST PUSH1 0x20 DUP3 ADD SWAP2 POP PUSH2 0xD54 DUP3 DUP5 PUSH2 0xD21 JUMP JUMPDEST PUSH1 0x20 DUP3 ADD SWAP2 POP DUP2 SWAP1 POP SWAP4 SWAP3 POP POP POP JUMP JUMPDEST PUSH1 0x0 PUSH2 0xD6F DUP3 PUSH2 0x681 JUMP JUMPDEST SWAP2 POP PUSH32 0xFFFFFFFFFFFFFFFFFFFFFFFFFFFFFFFFFFFFFFFFFFFFFFFFFFFFFFFFFFFFFFFF DUP3 EQ ISZERO PUSH2 0xDA2 JUMPI PUSH2 0xDA1 PUSH2 0xA41 JUMP JUMPDEST JUMPDEST PUSH1 0x1 DUP3 ADD SWAP1 POP SWAP2 SWAP1 POP JUMP INVALID LOG2 PUSH5 0x6970667358 0x22 SLT KECCAK256 0xEE BALANCE JUMPI STOP SWAP14 0xA6 MSTORE8 0xDD EXTCODEHASH 0xBC PUSH25 0x17CCE5FFAD15EE5C0623E398EF58B15EE8A646C3464736F6C PUSH4 0x4300080A STOP CALLER "
        },
        "methodIdentifiers": {
          "generateTree(string[4])": "7d5f67a1",
          "getRoot()": "5ca1e165",
          "hashes(uint256)": "501895ae"
        }
      }
    }
  }
}