{
  "_format": "hh-sol-artifact-1",
  "contractName": "ZKUToken",
  "sourceName": "contracts/ZKUToken.sol",
  "abi": [
    {
      "inputs": [],
      "stateMutability": "nonpayable",
      "type": "constructor"
    },
    {
      "anonymous": false,
      "inputs": [
        {
          "indexed": true,
          "internalType": "address",
          "name": "owner",
          "type": "address"
        },
        {
          "indexed": true,
          "internalType": "address",
          "name": "approved",
          "type": "address"
        },
        {
          "indexed": true,
          "internalType": "uint256",
          "name": "tokenId",
          "type": "uint256"
        }
      ],
      "name": "Approval",
      "type": "event"
    },
    {
      "anonymous": false,
      "inputs": [
        {
          "indexed": true,
          "internalType": "address",
          "name": "owner",
          "type": "address"
        },
        {
          "indexed": true,
          "internalType": "address",
          "name": "operator",
          "type": "address"
        },
        {
          "indexed": false,
          "internalType": "bool",
          "name": "approved",
          "type": "bool"
        }
      ],
      "name": "ApprovalForAll",
      "type": "event"
    },
    {
      "anonymous": false,
      "inputs": [
        {
          "indexed": true,
          "internalType": "address",
          "name": "from",
          "type": "address"
        },
        {
          "indexed": true,
          "internalType": "address",
          "name": "to",
          "type": "address"
        },
        {
          "indexed": true,
          "internalType": "uint256",
          "name": "tokenId",
          "type": "uint256"
        }
      ],
      "name": "Transfer",
      "type": "event"
    },
    {
      "inputs": [
        {
          "internalType": "address",
          "name": "to",
          "type": "address"
        },
        {
          "internalType": "uint256",
          "name": "tokenId",
          "type": "uint256"
        }
      ],
      "name": "approve",
      "outputs": [],
      "stateMutability": "nonpayable",
      "type": "function"
    },
    {
      "inputs": [
        {
          "internalType": "address",
          "name": "player",
          "type": "address"
        }
      ],
      "name": "awardItem",
      "outputs": [
        {
          "internalType": "uint256",
          "name": "",
          "type": "uint256"
        }
      ],
      "stateMutability": "nonpayable",
      "type": "function"
    },
    {
      "inputs": [
        {
          "internalType": "address",
          "name": "owner",
          "type": "address"
        }
      ],
      "name": "balanceOf",
      "outputs": [
        {
          "internalType": "uint256",
          "name": "",
          "type": "uint256"
        }
      ],
      "stateMutability": "view",
      "type": "function"
    },
    {
      "inputs": [
        {
          "internalType": "uint256",
          "name": "tokenId",
          "type": "uint256"
        }
      ],
      "name": "getApproved",
      "outputs": [
        {
          "internalType": "address",
          "name": "",
          "type": "address"
        }
      ],
      "stateMutability": "view",
      "type": "function"
    },
    {
      "inputs": [
        {
          "internalType": "address",
          "name": "owner",
          "type": "address"
        },
        {
          "internalType": "address",
          "name": "operator",
          "type": "address"
        }
      ],
      "name": "isApprovedForAll",
      "outputs": [
        {
          "internalType": "bool",
          "name": "",
          "type": "bool"
        }
      ],
      "stateMutability": "view",
      "type": "function"
    },
    {
      "inputs": [],
      "name": "name",
      "outputs": [
        {
          "internalType": "string",
          "name": "",
          "type": "string"
        }
      ],
      "stateMutability": "view",
      "type": "function"
    },
    {
      "inputs": [
        {
          "internalType": "uint256",
          "name": "tokenId",
          "type": "uint256"
        }
      ],
      "name": "ownerOf",
      "outputs": [
        {
          "internalType": "address",
          "name": "",
          "type": "address"
        }
      ],
      "stateMutability": "view",
      "type": "function"
    },
    {
      "inputs": [
        {
          "internalType": "address",
          "name": "from",
          "type": "address"
        },
        {
          "internalType": "address",
          "name": "to",
          "type": "address"
        },
        {
          "internalType": "uint256",
          "name": "tokenId",
          "type": "uint256"
        }
      ],
      "name": "safeTransferFrom",
      "outputs": [],
      "stateMutability": "nonpayable",
      "type": "function"
    },
    {
      "inputs": [
        {
          "internalType": "address",
          "name": "from",
          "type": "address"
        },
        {
          "internalType": "address",
          "name": "to",
          "type": "address"
        },
        {
          "internalType": "uint256",
          "name": "tokenId",
          "type": "uint256"
        },
        {
          "internalType": "bytes",
          "name": "_data",
          "type": "bytes"
        }
      ],
      "name": "safeTransferFrom",
      "outputs": [],
      "stateMutability": "nonpayable",
      "type": "function"
    },
    {
      "inputs": [
        {
          "internalType": "address",
          "name": "operator",
          "type": "address"
        },
        {
          "internalType": "bool",
          "name": "approved",
          "type": "bool"
        }
      ],
      "name": "setApprovalForAll",
      "outputs": [],
      "stateMutability": "nonpayable",
      "type": "function"
    },
    {
      "inputs": [
        {
          "internalType": "bytes4",
          "name": "interfaceId",
          "type": "bytes4"
        }
      ],
      "name": "supportsInterface",
      "outputs": [
        {
          "internalType": "bool",
          "name": "",
          "type": "bool"
        }
      ],
      "stateMutability": "view",
      "type": "function"
    },
    {
      "inputs": [],
      "name": "symbol",
      "outputs": [
        {
          "internalType": "string",
          "name": "",
          "type": "string"
        }
      ],
      "stateMutability": "view",
      "type": "function"
    },
    {
      "inputs": [
        {
          "internalType": "uint256",
          "name": "tokenId",
          "type": "uint256"
        }
      ],
      "name": "tokenURI",
      "outputs": [
        {
          "internalType": "string",
          "name": "",
          "type": "string"
        }
      ],
      "stateMutability": "pure",
      "type": "function"
    },
    {
      "inputs": [
        {
          "internalType": "address",
          "name": "from",
          "type": "address"
        },
        {
          "internalType": "address",
          "name": "to",
          "type": "address"
        },
        {
          "internalType": "uint256",
          "name": "tokenId",
          "type": "uint256"
        }
      ],
      "name": "transferFrom",
      "outputs": [],
      "stateMutability": "nonpayable",
      "type": "function"
    }
  ],
  "bytecode": "0x60806040523480156200001157600080fd5b506040518060400160405280600881526020017f5a4b55546f6b656e0000000000000000000000000000000000000000000000008152506040518060400160405280600481526020017f5a4b555400000000000000000000000000000000000000000000000000000000815250816000908051906020019062000096929190620000b8565b508060019080519060200190620000af929190620000b8565b505050620001cd565b828054620000c69062000197565b90600052602060002090601f016020900481019282620000ea576000855562000136565b82601f106200010557805160ff191683800117855562000136565b8280016001018555821562000136579182015b828111156200013557825182559160200191906001019062000118565b5b50905062000145919062000149565b5090565b5b80821115620001645760008160009055506001016200014a565b5090565b7f4e487b7100000000000000000000000000000000000000000000000000000000600052602260045260246000fd5b60006002820490506001821680620001b057607f821691505b60208210811415620001c757620001c662000168565b5b50919050565b612bd780620001dd6000396000f3fe608060405234801561001057600080fd5b50600436106100ea5760003560e01c806370a082311161008c578063b88d4fde11610066578063b88d4fde1461025b578063c87b56dd14610277578063e985e9c5146102a7578063f2fb2120146102d7576100ea565b806370a08231146101f157806395d89b4114610221578063a22cb4651461023f576100ea565b8063095ea7b3116100c8578063095ea7b31461016d57806323b872dd1461018957806342842e0e146101a55780636352211e146101c1576100ea565b806301ffc9a7146100ef57806306fdde031461011f578063081812fc1461013d575b600080fd5b610109600480360381019061010491906118dd565b610307565b6040516101169190611925565b60405180910390f35b6101276103e9565b60405161013491906119d9565b60405180910390f35b61015760048036038101906101529190611a31565b61047b565b6040516101649190611a9f565b60405180910390f35b61018760048036038101906101829190611ae6565b610500565b005b6101a3600480360381019061019e9190611b26565b610618565b005b6101bf60048036038101906101ba9190611b26565b610678565b005b6101db60048036038101906101d69190611a31565b610698565b6040516101e89190611a9f565b60405180910390f35b61020b60048036038101906102069190611b79565b61074a565b6040516102189190611bb5565b60405180910390f35b610229610802565b60405161023691906119d9565b60405180910390f35b61025960048036038101906102549190611bfc565b610894565b005b61027560048036038101906102709190611d71565b6108aa565b005b610291600480360381019061028c9190611a31565b61090c565b60405161029e91906119d9565b60405180910390f35b6102c160048036038101906102bc9190611df4565b61096a565b6040516102ce9190611925565b60405180910390f35b6102f160048036038101906102ec9190611b79565b6109fe565b6040516102fe9190611bb5565b60405180910390f35b60007f80ac58cd000000000000000000000000000000000000000000000000000000007bffffffffffffffffffffffffffffffffffffffffffffffffffffffff1916827bffffffffffffffffffffffffffffffffffffffffffffffffffffffff191614806103d257507f5b5e139f000000000000000000000000000000000000000000000000000000007bffffffffffffffffffffffffffffffffffffffffffffffffffffffff1916827bffffffffffffffffffffffffffffffffffffffffffffffffffffffff1916145b806103e257506103e182610a3d565b5b9050919050565b6060600080546103f890611e63565b80601f016020809104026020016040519081016040528092919081815260200182805461042490611e63565b80156104715780601f1061044657610100808354040283529160200191610471565b820191906000526020600020905b81548152906001019060200180831161045457829003601f168201915b5050505050905090565b600061048682610aa7565b6104c5576040517f08c379a00000000000000000000000000000000000000000000000000000000081526004016104bc90611f07565b60405180910390fd5b6004600083815260200190815260200160002060009054906101000a900473ffffffffffffffffffffffffffffffffffffffff169050919050565b600061050b82610698565b90508073ffffffffffffffffffffffffffffffffffffffff168373ffffffffffffffffffffffffffffffffffffffff16141561057c576040517f08c379a000000000000000000000000000000000000000000000000000000000815260040161057390611f99565b60405180910390fd5b8073ffffffffffffffffffffffffffffffffffffffff1661059b610b13565b73ffffffffffffffffffffffffffffffffffffffff1614806105ca57506105c9816105c4610b13565b61096a565b5b610609576040517f08c379a00000000000000000000000000000000000000000000000000000000081526004016106009061202b565b60405180910390fd5b6106138383610b1b565b505050565b610629610623610b13565b82610bd4565b610668576040517f08c379a000000000000000000000000000000000000000000000000000000000815260040161065f906120bd565b60405180910390fd5b610673838383610cb2565b505050565b610693838383604051806020016040528060008152506108aa565b505050565b6000806002600084815260200190815260200160002060009054906101000a900473ffffffffffffffffffffffffffffffffffffffff169050600073ffffffffffffffffffffffffffffffffffffffff168173ffffffffffffffffffffffffffffffffffffffff161415610741576040517f08c379a00000000000000000000000000000000000000000000000000000000081526004016107389061214f565b60405180910390fd5b80915050919050565b60008073ffffffffffffffffffffffffffffffffffffffff168273ffffffffffffffffffffffffffffffffffffffff1614156107bb576040517f08c379a00000000000000000000000000000000000000000000000000000000081526004016107b2906121e1565b60405180910390fd5b600360008373ffffffffffffffffffffffffffffffffffffffff1673ffffffffffffffffffffffffffffffffffffffff168152602001908152602001600020549050919050565b60606001805461081190611e63565b80601f016020809104026020016040519081016040528092919081815260200182805461083d90611e63565b801561088a5780601f1061085f5761010080835404028352916020019161088a565b820191906000526020600020905b81548152906001019060200180831161086d57829003601f168201915b5050505050905090565b6108a661089f610b13565b8383610f19565b5050565b6108bb6108b5610b13565b83610bd4565b6108fa576040517f08c379a00000000000000000000000000000000000000000000000000000000081526004016108f1906120bd565b60405180910390fd5b61090684848484611086565b50505050565b60606000610919836110e2565b6040516020016109299190612393565b604051602081830303815290604052905061094381611243565b6040516020016109539190612422565b604051602081830303815290604052915050919050565b6000600560008473ffffffffffffffffffffffffffffffffffffffff1673ffffffffffffffffffffffffffffffffffffffff16815260200190815260200160002060008373ffffffffffffffffffffffffffffffffffffffff1673ffffffffffffffffffffffffffffffffffffffff16815260200190815260200160002060009054906101000a900460ff16905092915050565b6000610a0a60076113a7565b6000610a1660076113bd565b9050610a2283826113cb565b610a3481610a2f8361090c565b6115a5565b80915050919050565b60007f01ffc9a7000000000000000000000000000000000000000000000000000000007bffffffffffffffffffffffffffffffffffffffffffffffffffffffff1916827bffffffffffffffffffffffffffffffffffffffffffffffffffffffff1916149050919050565b60008073ffffffffffffffffffffffffffffffffffffffff166002600084815260200190815260200160002060009054906101000a900473ffffffffffffffffffffffffffffffffffffffff1673ffffffffffffffffffffffffffffffffffffffff1614159050919050565b600033905090565b816004600083815260200190815260200160002060006101000a81548173ffffffffffffffffffffffffffffffffffffffff021916908373ffffffffffffffffffffffffffffffffffffffff160217905550808273ffffffffffffffffffffffffffffffffffffffff16610b8e83610698565b73ffffffffffffffffffffffffffffffffffffffff167f8c5be1e5ebec7d5bd14f71427d1e84f3dd0314c0f7b2291e5b200ac8c7c3b92560405160405180910390a45050565b6000610bdf82610aa7565b610c1e576040517f08c379a0000000000000000000000000000000000000000000000000000000008152600401610c15906124b6565b60405180910390fd5b6000610c2983610698565b90508073ffffffffffffffffffffffffffffffffffffffff168473ffffffffffffffffffffffffffffffffffffffff161480610c9857508373ffffffffffffffffffffffffffffffffffffffff16610c808461047b565b73ffffffffffffffffffffffffffffffffffffffff16145b80610ca95750610ca8818561096a565b5b91505092915050565b8273ffffffffffffffffffffffffffffffffffffffff16610cd282610698565b73ffffffffffffffffffffffffffffffffffffffff1614610d28576040517f08c379a0000000000000000000000000000000000000000000000000000000008152600401610d1f90612548565b60405180910390fd5b600073ffffffffffffffffffffffffffffffffffffffff168273ffffffffffffffffffffffffffffffffffffffff161415610d98576040517f08c379a0000000000000000000000000000000000000000000000000000000008152600401610d8f906125da565b60405180910390fd5b610da3838383611619565b610dae600082610b1b565b6001600360008573ffffffffffffffffffffffffffffffffffffffff1673ffffffffffffffffffffffffffffffffffffffff1681526020019081526020016000206000828254610dfe9190612629565b925050819055506001600360008473ffffffffffffffffffffffffffffffffffffffff1673ffffffffffffffffffffffffffffffffffffffff1681526020019081526020016000206000828254610e55919061265d565b92505081905550816002600083815260200190815260200160002060006101000a81548173ffffffffffffffffffffffffffffffffffffffff021916908373ffffffffffffffffffffffffffffffffffffffff160217905550808273ffffffffffffffffffffffffffffffffffffffff168473ffffffffffffffffffffffffffffffffffffffff167fddf252ad1be2c89b69c2b068fc378daa952ba7f163c4a11628f55a4df523b3ef60405160405180910390a4610f1483838361161e565b505050565b8173ffffffffffffffffffffffffffffffffffffffff168373ffffffffffffffffffffffffffffffffffffffff161415610f88576040517f08c379a0000000000000000000000000000000000000000000000000000000008152600401610f7f906126ff565b60405180910390fd5b80600560008573ffffffffffffffffffffffffffffffffffffffff1673ffffffffffffffffffffffffffffffffffffffff16815260200190815260200160002060008473ffffffffffffffffffffffffffffffffffffffff1673ffffffffffffffffffffffffffffffffffffffff16815260200190815260200160002060006101000a81548160ff0219169083151502179055508173ffffffffffffffffffffffffffffffffffffffff168373ffffffffffffffffffffffffffffffffffffffff167f17307eab39ab6107e8899845ad3d59bd9653f200f220920489ca2b5937696c31836040516110799190611925565b60405180910390a3505050565b611091848484610cb2565b61109d84848484611623565b6110dc576040517f08c379a00000000000000000000000000000000000000000000000000000000081526004016110d390612791565b60405180910390fd5b50505050565b6060600082141561112a576040518060400160405280600181526020017f3000000000000000000000000000000000000000000000000000000000000000815250905061123e565b600082905060005b6000821461115c578080611145906127b1565b915050600a826111559190612829565b9150611132565b60008167ffffffffffffffff81111561117857611177611c46565b5b6040519080825280601f01601f1916602001820160405280156111aa5781602001600182028036833780820191505090505b5090505b60008514611237576001826111c39190612629565b9150600a856111d2919061285a565b60306111de919061265d565b60f81b8183815181106111f4576111f361288b565b5b60200101907effffffffffffffffffffffffffffffffffffffffffffffffffffffffffffff1916908160001a905350600a856112309190612829565b94506111ae565b8093505050505b919050565b6060600082511415611266576040518060200160405280600081525090506113a2565b6000604051806060016040528060408152602001612b626040913990506000600360028551611295919061265d565b61129f9190612829565b60046112ab91906128ba565b67ffffffffffffffff8111156112c4576112c3611c46565b5b6040519080825280601f01601f1916602001820160405280156112f65781602001600182028036833780820191505090505b509050600182016020820185865187015b80821015611362576003820191508151603f8160121c168501518453600184019350603f81600c1c168501518453600184019350603f8160061c168501518453600184019350603f8116850151845360018401935050611307565b505060038651066001811461137e576002811461139157611399565b603d6001830353603d6002830353611399565b603d60018303535b50505080925050505b919050565b6001816000016000828254019250508190555050565b600081600001549050919050565b600073ffffffffffffffffffffffffffffffffffffffff168273ffffffffffffffffffffffffffffffffffffffff16141561143b576040517f08c379a000000000000000000000000000000000000000000000000000000000815260040161143290612960565b60405180910390fd5b61144481610aa7565b15611484576040517f08c379a000000000000000000000000000000000000000000000000000000000815260040161147b906129cc565b60405180910390fd5b61149060008383611619565b6001600360008473ffffffffffffffffffffffffffffffffffffffff1673ffffffffffffffffffffffffffffffffffffffff16815260200190815260200160002060008282546114e0919061265d565b92505081905550816002600083815260200190815260200160002060006101000a81548173ffffffffffffffffffffffffffffffffffffffff021916908373ffffffffffffffffffffffffffffffffffffffff160217905550808273ffffffffffffffffffffffffffffffffffffffff16600073ffffffffffffffffffffffffffffffffffffffff167fddf252ad1be2c89b69c2b068fc378daa952ba7f163c4a11628f55a4df523b3ef60405160405180910390a46115a16000838361161e565b5050565b6115ae82610aa7565b6115ed576040517f08c379a00000000000000000000000000000000000000000000000000000000081526004016115e490612a5e565b60405180910390fd5b806006600084815260200190815260200160002090805190602001906116149291906117ce565b505050565b505050565b505050565b60006116448473ffffffffffffffffffffffffffffffffffffffff166117ab565b1561179e578373ffffffffffffffffffffffffffffffffffffffff1663150b7a0261166d610b13565b8786866040518563ffffffff1660e01b815260040161168f9493929190612ad3565b6020604051808303816000875af19250505080156116cb57506040513d601f19601f820116820180604052508101906116c89190612b34565b60015b61174e573d80600081146116fb576040519150601f19603f3d011682016040523d82523d6000602084013e611700565b606091505b50600081511415611746576040517f08c379a000000000000000000000000000000000000000000000000000000000815260040161173d90612791565b60405180910390fd5b805181602001fd5b63150b7a0260e01b7bffffffffffffffffffffffffffffffffffffffffffffffffffffffff1916817bffffffffffffffffffffffffffffffffffffffffffffffffffffffff1916149150506117a3565b600190505b949350505050565b6000808273ffffffffffffffffffffffffffffffffffffffff163b119050919050565b8280546117da90611e63565b90600052602060002090601f0160209004810192826117fc5760008555611843565b82601f1061181557805160ff1916838001178555611843565b82800160010185558215611843579182015b82811115611842578251825591602001919060010190611827565b5b5090506118509190611854565b5090565b5b8082111561186d576000816000905550600101611855565b5090565b6000604051905090565b600080fd5b600080fd5b60007fffffffff0000000000000000000000000000000000000000000000000000000082169050919050565b6118ba81611885565b81146118c557600080fd5b50565b6000813590506118d7816118b1565b92915050565b6000602082840312156118f3576118f261187b565b5b6000611901848285016118c8565b91505092915050565b60008115159050919050565b61191f8161190a565b82525050565b600060208201905061193a6000830184611916565b92915050565b600081519050919050565b600082825260208201905092915050565b60005b8381101561197a57808201518184015260208101905061195f565b83811115611989576000848401525b50505050565b6000601f19601f8301169050919050565b60006119ab82611940565b6119b5818561194b565b93506119c581856020860161195c565b6119ce8161198f565b840191505092915050565b600060208201905081810360008301526119f381846119a0565b905092915050565b6000819050919050565b611a0e816119fb565b8114611a1957600080fd5b50565b600081359050611a2b81611a05565b92915050565b600060208284031215611a4757611a4661187b565b5b6000611a5584828501611a1c565b91505092915050565b600073ffffffffffffffffffffffffffffffffffffffff82169050919050565b6000611a8982611a5e565b9050919050565b611a9981611a7e565b82525050565b6000602082019050611ab46000830184611a90565b92915050565b611ac381611a7e565b8114611ace57600080fd5b50565b600081359050611ae081611aba565b92915050565b60008060408385031215611afd57611afc61187b565b5b6000611b0b85828601611ad1565b9250506020611b1c85828601611a1c565b9150509250929050565b600080600060608486031215611b3f57611b3e61187b565b5b6000611b4d86828701611ad1565b9350506020611b5e86828701611ad1565b9250506040611b6f86828701611a1c565b9150509250925092565b600060208284031215611b8f57611b8e61187b565b5b6000611b9d84828501611ad1565b91505092915050565b611baf816119fb565b82525050565b6000602082019050611bca6000830184611ba6565b92915050565b611bd98161190a565b8114611be457600080fd5b50565b600081359050611bf681611bd0565b92915050565b60008060408385031215611c1357611c1261187b565b5b6000611c2185828601611ad1565b9250506020611c3285828601611be7565b9150509250929050565b600080fd5b600080fd5b7f4e487b7100000000000000000000000000000000000000000000000000000000600052604160045260246000fd5b611c7e8261198f565b810181811067ffffffffffffffff82111715611c9d57611c9c611c46565b5b80604052505050565b6000611cb0611871565b9050611cbc8282611c75565b919050565b600067ffffffffffffffff821115611cdc57611cdb611c46565b5b611ce58261198f565b9050602081019050919050565b82818337600083830152505050565b6000611d14611d0f84611cc1565b611ca6565b905082815260208101848484011115611d3057611d2f611c41565b5b611d3b848285611cf2565b509392505050565b600082601f830112611d5857611d57611c3c565b5b8135611d68848260208601611d01565b91505092915050565b60008060008060808587031215611d8b57611d8a61187b565b5b6000611d9987828801611ad1565b9450506020611daa87828801611ad1565b9350506040611dbb87828801611a1c565b925050606085013567ffffffffffffffff811115611ddc57611ddb611880565b5b611de887828801611d43565b91505092959194509250565b60008060408385031215611e0b57611e0a61187b565b5b6000611e1985828601611ad1565b9250506020611e2a85828601611ad1565b9150509250929050565b7f4e487b7100000000000000000000000000000000000000000000000000000000600052602260045260246000fd5b60006002820490506001821680611e7b57607f821691505b60208210811415611e8f57611e8e611e34565b5b50919050565b7f4552433732313a20617070726f76656420717565727920666f72206e6f6e657860008201527f697374656e7420746f6b656e0000000000000000000000000000000000000000602082015250565b6000611ef1602c8361194b565b9150611efc82611e95565b604082019050919050565b60006020820190508181036000830152611f2081611ee4565b9050919050565b7f4552433732313a20617070726f76616c20746f2063757272656e74206f776e6560008201527f7200000000000000000000000000000000000000000000000000000000000000602082015250565b6000611f8360218361194b565b9150611f8e82611f27565b604082019050919050565b60006020820190508181036000830152611fb281611f76565b9050919050565b7f4552433732313a20617070726f76652063616c6c6572206973206e6f74206f7760008201527f6e6572206e6f7220617070726f76656420666f7220616c6c0000000000000000602082015250565b600061201560388361194b565b915061202082611fb9565b604082019050919050565b6000602082019050818103600083015261204481612008565b9050919050565b7f4552433732313a207472616e736665722063616c6c6572206973206e6f74206f60008201527f776e6572206e6f7220617070726f766564000000000000000000000000000000602082015250565b60006120a760318361194b565b91506120b28261204b565b604082019050919050565b600060208201905081810360008301526120d68161209a565b9050919050565b7f4552433732313a206f776e657220717565727920666f72206e6f6e657869737460008201527f656e7420746f6b656e0000000000000000000000000000000000000000000000602082015250565b600061213960298361194b565b9150612144826120dd565b604082019050919050565b600060208201905081810360008301526121688161212c565b9050919050565b7f4552433732313a2062616c616e636520717565727920666f7220746865207a6560008201527f726f206164647265737300000000000000000000000000000000000000000000602082015250565b60006121cb602a8361194b565b91506121d68261216f565b604082019050919050565b600060208201905081810360008301526121fa816121be565b9050919050565b600081905092915050565b7f7b226e616d65223a20225a4b55546f6b656e2023000000000000000000000000600082015250565b6000612242601483612201565b915061224d8261220c565b601482019050919050565b600061226382611940565b61226d8185612201565b935061227d81856020860161195c565b80840191505092915050565b7f2200000000000000000000000000000000000000000000000000000000000000600082015250565b60006122bf600183612201565b91506122ca82612289565b600182019050919050565b7f226465736372697074696f6e223a20227468697320746f6b656e20697320617760008201527f65736f6d65220000000000000000000000000000000000000000000000000000602082015250565b6000612331602683612201565b915061233c826122d5565b602682019050919050565b7f7d00000000000000000000000000000000000000000000000000000000000000600082015250565b600061237d600183612201565b915061238882612347565b600182019050919050565b600061239e82612235565b91506123aa8284612258565b91506123b5826122b2565b91506123c082612324565b91506123cb82612370565b915081905092915050565b7f646174613a6170706c69636174696f6e2f6a736f6e3b6261736536342c000000600082015250565b600061240c601d83612201565b9150612417826123d6565b601d82019050919050565b600061242d826123ff565b91506124398284612258565b915081905092915050565b7f4552433732313a206f70657261746f7220717565727920666f72206e6f6e657860008201527f697374656e7420746f6b656e0000000000000000000000000000000000000000602082015250565b60006124a0602c8361194b565b91506124ab82612444565b604082019050919050565b600060208201905081810360008301526124cf81612493565b9050919050565b7f4552433732313a207472616e736665722066726f6d20696e636f72726563742060008201527f6f776e6572000000000000000000000000000000000000000000000000000000602082015250565b600061253260258361194b565b915061253d826124d6565b604082019050919050565b6000602082019050818103600083015261256181612525565b9050919050565b7f4552433732313a207472616e7366657220746f20746865207a65726f2061646460008201527f7265737300000000000000000000000000000000000000000000000000000000602082015250565b60006125c460248361194b565b91506125cf82612568565b604082019050919050565b600060208201905081810360008301526125f3816125b7565b9050919050565b7f4e487b7100000000000000000000000000000000000000000000000000000000600052601160045260246000fd5b6000612634826119fb565b915061263f836119fb565b925082821015612652576126516125fa565b5b828203905092915050565b6000612668826119fb565b9150612673836119fb565b9250827fffffffffffffffffffffffffffffffffffffffffffffffffffffffffffffffff038211156126a8576126a76125fa565b5b828201905092915050565b7f4552433732313a20617070726f766520746f2063616c6c657200000000000000600082015250565b60006126e960198361194b565b91506126f4826126b3565b602082019050919050565b60006020820190508181036000830152612718816126dc565b9050919050565b7f4552433732313a207472616e7366657220746f206e6f6e20455243373231526560008201527f63656976657220696d706c656d656e7465720000000000000000000000000000602082015250565b600061277b60328361194b565b91506127868261271f565b604082019050919050565b600060208201905081810360008301526127aa8161276e565b9050919050565b60006127bc826119fb565b91507fffffffffffffffffffffffffffffffffffffffffffffffffffffffffffffffff8214156127ef576127ee6125fa565b5b600182019050919050565b7f4e487b7100000000000000000000000000000000000000000000000000000000600052601260045260246000fd5b6000612834826119fb565b915061283f836119fb565b92508261284f5761284e6127fa565b5b828204905092915050565b6000612865826119fb565b9150612870836119fb565b9250826128805761287f6127fa565b5b828206905092915050565b7f4e487b7100000000000000000000000000000000000000000000000000000000600052603260045260246000fd5b60006128c5826119fb565b91506128d0836119fb565b9250817fffffffffffffffffffffffffffffffffffffffffffffffffffffffffffffffff0483118215151615612909576129086125fa565b5b828202905092915050565b7f4552433732313a206d696e7420746f20746865207a65726f2061646472657373600082015250565b600061294a60208361194b565b915061295582612914565b602082019050919050565b600060208201905081810360008301526129798161293d565b9050919050565b7f4552433732313a20746f6b656e20616c7265616479206d696e74656400000000600082015250565b60006129b6601c8361194b565b91506129c182612980565b602082019050919050565b600060208201905081810360008301526129e5816129a9565b9050919050565b7f45524337323155524953746f726167653a2055524920736574206f66206e6f6e60008201527f6578697374656e7420746f6b656e000000000000000000000000000000000000602082015250565b6000612a48602e8361194b565b9150612a53826129ec565b604082019050919050565b60006020820190508181036000830152612a7781612a3b565b9050919050565b600081519050919050565b600082825260208201905092915050565b6000612aa582612a7e565b612aaf8185612a89565b9350612abf81856020860161195c565b612ac88161198f565b840191505092915050565b6000608082019050612ae86000830187611a90565b612af56020830186611a90565b612b026040830185611ba6565b8181036060830152612b148184612a9a565b905095945050505050565b600081519050612b2e816118b1565b92915050565b600060208284031215612b4a57612b4961187b565b5b6000612b5884828501612b1f565b9150509291505056fe4142434445464748494a4b4c4d4e4f505152535455565758595a6162636465666768696a6b6c6d6e6f707172737475767778797a303132333435363738392b2fa2646970667358221220e8402deed29221480dddd444b6e20b16af41b003c08dd9bb10095d7e6a7a33ae64736f6c634300080a0033",
  "linkReferences": {},
  "deployedLinkReferences": {}
}