{
  "_format": "hh-sol-artifact-1",
  "contractName": "ZKUTokenWithMerkleTree",
  "sourceName": "contracts/ZKUTokenWithMerkleTree.sol",
  "abi": [
    {
      "inputs": [],
      "stateMutability": "nonpayable",
      "type": "constructor"
    },
    {
      "anonymous": false,
      "inputs": [
        {
          "indexed": true,
          "internalType": "address",
          "name": "owner",
          "type": "address"
        },
        {
          "indexed": true,
          "internalType": "address",
          "name": "approved",
          "type": "address"
        },
        {
          "indexed": true,
          "internalType": "uint256",
          "name": "tokenId",
          "type": "uint256"
        }
      ],
      "name": "Approval",
      "type": "event"
    },
    {
      "anonymous": false,
      "inputs": [
        {
          "indexed": true,
          "internalType": "address",
          "name": "owner",
          "type": "address"
        },
        {
          "indexed": true,
          "internalType": "address",
          "name": "operator",
          "type": "address"
        },
        {
          "indexed": false,
          "internalType": "bool",
          "name": "approved",
          "type": "bool"
        }
      ],
      "name": "ApprovalForAll",
      "type": "event"
    },
    {
      "anonymous": false,
      "inputs": [
        {
          "indexed": false,
          "internalType": "bytes32[4]",
          "name": "leaves",
          "type": "bytes32[4]"
        }
      ],
      "name": "MerkleLeaves",
      "type": "event"
    },
    {
      "anonymous": false,
      "inputs": [
        {
          "indexed": true,
          "internalType": "address",
          "name": "from",
          "type": "address"
        },
        {
          "indexed": true,
          "internalType": "address",
          "name": "to",
          "type": "address"
        },
        {
          "indexed": true,
          "internalType": "uint256",
          "name": "tokenId",
          "type": "uint256"
        }
      ],
      "name": "Transfer",
      "type": "event"
    },
    {
      "inputs": [
        {
          "internalType": "address",
          "name": "to",
          "type": "address"
        },
        {
          "internalType": "uint256",
          "name": "tokenId",
          "type": "uint256"
        }
      ],
      "name": "approve",
      "outputs": [],
      "stateMutability": "nonpayable",
      "type": "function"
    },
    {
      "inputs": [
        {
          "internalType": "address",
          "name": "receiver",
          "type": "address"
        },
        {
          "internalType": "address",
          "name": "_merkleTree",
          "type": "address"
        }
      ],
      "name": "awardItem",
      "outputs": [
        {
          "internalType": "uint256",
          "name": "",
          "type": "uint256"
        }
      ],
      "stateMutability": "nonpayable",
      "type": "function"
    },
    {
      "inputs": [
        {
          "internalType": "address",
          "name": "owner",
          "type": "address"
        }
      ],
      "name": "balanceOf",
      "outputs": [
        {
          "internalType": "uint256",
          "name": "",
          "type": "uint256"
        }
      ],
      "stateMutability": "view",
      "type": "function"
    },
    {
      "inputs": [
        {
          "internalType": "uint256",
          "name": "tokenId",
          "type": "uint256"
        }
      ],
      "name": "getApproved",
      "outputs": [
        {
          "internalType": "address",
          "name": "",
          "type": "address"
        }
      ],
      "stateMutability": "view",
      "type": "function"
    },
    {
      "inputs": [
        {
          "internalType": "address",
          "name": "owner",
          "type": "address"
        },
        {
          "internalType": "address",
          "name": "operator",
          "type": "address"
        }
      ],
      "name": "isApprovedForAll",
      "outputs": [
        {
          "internalType": "bool",
          "name": "",
          "type": "bool"
        }
      ],
      "stateMutability": "view",
      "type": "function"
    },
    {
      "inputs": [],
      "name": "name",
      "outputs": [
        {
          "internalType": "string",
          "name": "",
          "type": "string"
        }
      ],
      "stateMutability": "view",
      "type": "function"
    },
    {
      "inputs": [
        {
          "internalType": "uint256",
          "name": "tokenId",
          "type": "uint256"
        }
      ],
      "name": "ownerOf",
      "outputs": [
        {
          "internalType": "address",
          "name": "",
          "type": "address"
        }
      ],
      "stateMutability": "view",
      "type": "function"
    },
    {
      "inputs": [
        {
          "internalType": "address",
          "name": "from",
          "type": "address"
        },
        {
          "internalType": "address",
          "name": "to",
          "type": "address"
        },
        {
          "internalType": "uint256",
          "name": "tokenId",
          "type": "uint256"
        }
      ],
      "name": "safeTransferFrom",
      "outputs": [],
      "stateMutability": "nonpayable",
      "type": "function"
    },
    {
      "inputs": [
        {
          "internalType": "address",
          "name": "from",
          "type": "address"
        },
        {
          "internalType": "address",
          "name": "to",
          "type": "address"
        },
        {
          "internalType": "uint256",
          "name": "tokenId",
          "type": "uint256"
        },
        {
          "internalType": "bytes",
          "name": "_data",
          "type": "bytes"
        }
      ],
      "name": "safeTransferFrom",
      "outputs": [],
      "stateMutability": "nonpayable",
      "type": "function"
    },
    {
      "inputs": [
        {
          "internalType": "address",
          "name": "operator",
          "type": "address"
        },
        {
          "internalType": "bool",
          "name": "approved",
          "type": "bool"
        }
      ],
      "name": "setApprovalForAll",
      "outputs": [],
      "stateMutability": "nonpayable",
      "type": "function"
    },
    {
      "inputs": [
        {
          "internalType": "bytes4",
          "name": "interfaceId",
          "type": "bytes4"
        }
      ],
      "name": "supportsInterface",
      "outputs": [
        {
          "internalType": "bool",
          "name": "",
          "type": "bool"
        }
      ],
      "stateMutability": "view",
      "type": "function"
    },
    {
      "inputs": [],
      "name": "symbol",
      "outputs": [
        {
          "internalType": "string",
          "name": "",
          "type": "string"
        }
      ],
      "stateMutability": "view",
      "type": "function"
    },
    {
      "inputs": [
        {
          "internalType": "bytes",
          "name": "data",
          "type": "bytes"
        }
      ],
      "name": "toString",
      "outputs": [
        {
          "internalType": "string",
          "name": "",
          "type": "string"
        }
      ],
      "stateMutability": "pure",
      "type": "function"
    },
    {
      "inputs": [
        {
          "internalType": "uint256",
          "name": "tokenId",
          "type": "uint256"
        }
      ],
      "name": "tokenURI",
      "outputs": [
        {
          "internalType": "string",
          "name": "",
          "type": "string"
        }
      ],
      "stateMutability": "pure",
      "type": "function"
    },
    {
      "inputs": [
        {
          "internalType": "address",
          "name": "from",
          "type": "address"
        },
        {
          "internalType": "address",
          "name": "to",
          "type": "address"
        },
        {
          "internalType": "uint256",
          "name": "tokenId",
          "type": "uint256"
        }
      ],
      "name": "transferFrom",
      "outputs": [],
      "stateMutability": "nonpayable",
      "type": "function"
    }
  ],
  "bytecode": "0x60806040523480156200001157600080fd5b506040518060400160405280600881526020017f5a4b55546f6b656e0000000000000000000000000000000000000000000000008152506040518060400160405280600481526020017f5a4b555400000000000000000000000000000000000000000000000000000000815250816000908051906020019062000096929190620000b8565b508060019080519060200190620000af929190620000b8565b505050620001cd565b828054620000c69062000197565b90600052602060002090601f016020900481019282620000ea576000855562000136565b82601f106200010557805160ff191683800117855562000136565b8280016001018555821562000136579182015b828111156200013557825182559160200191906001019062000118565b5b50905062000145919062000149565b5090565b5b80821115620001645760008160009055506001016200014a565b5090565b7f4e487b7100000000000000000000000000000000000000000000000000000000600052602260045260246000fd5b60006002820490506001821680620001b057607f821691505b60208210811415620001c757620001c662000168565b5b50919050565b6133ee80620001dd6000396000f3fe608060405234801561001057600080fd5b50600436106100f55760003560e01c806370a0823111610097578063b88d4fde11610066578063b88d4fde14610296578063c87b56dd146102b2578063e31ab8df146102e2578063e985e9c514610312576100f5565b806370a08231146101fc57806371aad10d1461022c57806395d89b411461025c578063a22cb4651461027a576100f5565b8063095ea7b3116100d3578063095ea7b31461017857806323b872dd1461019457806342842e0e146101b05780636352211e146101cc576100f5565b806301ffc9a7146100fa57806306fdde031461012a578063081812fc14610148575b600080fd5b610114600480360381019061010f9190611d47565b610342565b6040516101219190611d8f565b60405180910390f35b610132610424565b60405161013f9190611e43565b60405180910390f35b610162600480360381019061015d9190611e9b565b6104b6565b60405161016f9190611f09565b60405180910390f35b610192600480360381019061018d9190611f50565b61053b565b005b6101ae60048036038101906101a99190611f90565b610653565b005b6101ca60048036038101906101c59190611f90565b6106b3565b005b6101e660048036038101906101e19190611e9b565b6106d3565b6040516101f39190611f09565b60405180910390f35b61021660048036038101906102119190611fe3565b610785565b604051610223919061201f565b60405180910390f35b6102466004803603810190610241919061216f565b61083d565b6040516102539190611e43565b60405180910390f35b610264610b37565b6040516102719190611e43565b60405180910390f35b610294600480360381019061028f91906121e4565b610bc9565b005b6102b060048036038101906102ab9190612224565b610bdf565b005b6102cc60048036038101906102c79190611e9b565b610c41565b6040516102d99190611e43565b60405180910390f35b6102fc60048036038101906102f791906122a7565b610c9f565b604051610309919061201f565b60405180910390f35b61032c600480360381019061032791906122a7565b610e13565b6040516103399190611d8f565b60405180910390f35b60007f80ac58cd000000000000000000000000000000000000000000000000000000007bffffffffffffffffffffffffffffffffffffffffffffffffffffffff1916827bffffffffffffffffffffffffffffffffffffffffffffffffffffffff1916148061040d57507f5b5e139f000000000000000000000000000000000000000000000000000000007bffffffffffffffffffffffffffffffffffffffffffffffffffffffff1916827bffffffffffffffffffffffffffffffffffffffffffffffffffffffff1916145b8061041d575061041c82610ea7565b5b9050919050565b60606000805461043390612316565b80601f016020809104026020016040519081016040528092919081815260200182805461045f90612316565b80156104ac5780601f10610481576101008083540402835291602001916104ac565b820191906000526020600020905b81548152906001019060200180831161048f57829003601f168201915b5050505050905090565b60006104c182610f11565b610500576040517f08c379a00000000000000000000000000000000000000000000000000000000081526004016104f7906123ba565b60405180910390fd5b6004600083815260200190815260200160002060009054906101000a900473ffffffffffffffffffffffffffffffffffffffff169050919050565b6000610546826106d3565b90508073ffffffffffffffffffffffffffffffffffffffff168373ffffffffffffffffffffffffffffffffffffffff1614156105b7576040517f08c379a00000000000000000000000000000000000000000000000000000000081526004016105ae9061244c565b60405180910390fd5b8073ffffffffffffffffffffffffffffffffffffffff166105d6610f7d565b73ffffffffffffffffffffffffffffffffffffffff1614806106055750610604816105ff610f7d565b610e13565b5b610644576040517f08c379a000000000000000000000000000000000000000000000000000000000815260040161063b906124de565b60405180910390fd5b61064e8383610f85565b505050565b61066461065e610f7d565b8261103e565b6106a3576040517f08c379a000000000000000000000000000000000000000000000000000000000815260040161069a90612570565b60405180910390fd5b6106ae83838361111c565b505050565b6106ce83838360405180602001604052806000815250610bdf565b505050565b6000806002600084815260200190815260200160002060009054906101000a900473ffffffffffffffffffffffffffffffffffffffff169050600073ffffffffffffffffffffffffffffffffffffffff168173ffffffffffffffffffffffffffffffffffffffff16141561077c576040517f08c379a000000000000000000000000000000000000000000000000000000000815260040161077390612602565b60405180910390fd5b80915050919050565b60008073ffffffffffffffffffffffffffffffffffffffff168273ffffffffffffffffffffffffffffffffffffffff1614156107f6576040517f08c379a00000000000000000000000000000000000000000000000000000000081526004016107ed90612694565b60405180910390fd5b600360008373ffffffffffffffffffffffffffffffffffffffff1673ffffffffffffffffffffffffffffffffffffffff168152602001908152602001600020549050919050565b606060006040518060400160405280601081526020017f3031323334353637383961626364656600000000000000000000000000000000815250905060006002845161088991906126e3565b6002610895919061273d565b67ffffffffffffffff8111156108ae576108ad612044565b5b6040519080825280601f01601f1916602001820160405280156108e05781602001600182028036833780820191505090505b5090507f30000000000000000000000000000000000000000000000000000000000000008160008151811061091857610917612793565b5b60200101907effffffffffffffffffffffffffffffffffffffffffffffffffffffffffffff1916908160001a9053507f78000000000000000000000000000000000000000000000000000000000000008160018151811061097c5761097b612793565b5b60200101907effffffffffffffffffffffffffffffffffffffffffffffffffffffffffffff1916908160001a90535060005b8451811015610b2c578260048683815181106109cd576109cc612793565b5b602001015160f81c60f81b7effffffffffffffffffffffffffffffffffffffffffffffffffffffffffffff1916901c60f81c60ff1681518110610a1357610a12612793565b5b602001015160f81c60f81b82600283610a2c91906126e3565b6002610a38919061273d565b81518110610a4957610a48612793565b5b60200101907effffffffffffffffffffffffffffffffffffffffffffffffffffffffffffff1916908160001a90535082600f60f81b868381518110610a9157610a90612793565b5b602001015160f81c60f81b1660f81c60ff1681518110610ab457610ab3612793565b5b602001015160f81c60f81b82600283610acd91906126e3565b6003610ad9919061273d565b81518110610aea57610ae9612793565b5b60200101907effffffffffffffffffffffffffffffffffffffffffffffffffffffffffffff1916908160001a9053508080610b24906127c2565b9150506109ae565b508092505050919050565b606060018054610b4690612316565b80601f0160208091040260200160405190810160405280929190818152602001828054610b7290612316565b8015610bbf5780601f10610b9457610100808354040283529160200191610bbf565b820191906000526020600020905b815481529060010190602001808311610ba257829003601f168201915b5050505050905090565b610bdb610bd4610f7d565b8383611383565b5050565b610bf0610bea610f7d565b8361103e565b610c2f576040517f08c379a0000000000000000000000000000000000000000000000000000000008152600401610c2690612570565b60405180910390fd5b610c3b848484846114f0565b50505050565b60606000610c4e8361154c565b604051602001610c5e919061299d565b6040516020818303038152906040529050610c78816116ad565b604051602001610c889190612a2c565b604051602081830303815290604052915050919050565b6000610cab6007611811565b6000610cb76007611827565b9050610cc38482611835565b6000610cce82610c41565b9050610cda8282611a0f565b60006040518060800160405280610d0f33604051602001610cfb9190612a96565b60405160208183030381529060405261083d565b8152602001610d3c88604051602001610d289190612a96565b60405160208183030381529060405261083d565b8152602001610d4a8561154c565b81526020018381525090507f049341a0038dcaac6eec2eb9200b14d3d8126d1e0a39e520b16509b8ca26b1d48573ffffffffffffffffffffffffffffffffffffffff16637d5f67a1836040518263ffffffff1660e01b8152600401610daf9190612bb1565b6080604051808303816000875af1158015610dce573d6000803e3d6000fd5b505050506040513d601f19601f82011682018060405250810190610df29190612cbf565b604051610dff9190612d97565b60405180910390a182935050505092915050565b6000600560008473ffffffffffffffffffffffffffffffffffffffff1673ffffffffffffffffffffffffffffffffffffffff16815260200190815260200160002060008373ffffffffffffffffffffffffffffffffffffffff1673ffffffffffffffffffffffffffffffffffffffff16815260200190815260200160002060009054906101000a900460ff16905092915050565b60007f01ffc9a7000000000000000000000000000000000000000000000000000000007bffffffffffffffffffffffffffffffffffffffffffffffffffffffff1916827bffffffffffffffffffffffffffffffffffffffffffffffffffffffff1916149050919050565b60008073ffffffffffffffffffffffffffffffffffffffff166002600084815260200190815260200160002060009054906101000a900473ffffffffffffffffffffffffffffffffffffffff1673ffffffffffffffffffffffffffffffffffffffff1614159050919050565b600033905090565b816004600083815260200190815260200160002060006101000a81548173ffffffffffffffffffffffffffffffffffffffff021916908373ffffffffffffffffffffffffffffffffffffffff160217905550808273ffffffffffffffffffffffffffffffffffffffff16610ff8836106d3565b73ffffffffffffffffffffffffffffffffffffffff167f8c5be1e5ebec7d5bd14f71427d1e84f3dd0314c0f7b2291e5b200ac8c7c3b92560405160405180910390a45050565b600061104982610f11565b611088576040517f08c379a000000000000000000000000000000000000000000000000000000000815260040161107f90612e24565b60405180910390fd5b6000611093836106d3565b90508073ffffffffffffffffffffffffffffffffffffffff168473ffffffffffffffffffffffffffffffffffffffff16148061110257508373ffffffffffffffffffffffffffffffffffffffff166110ea846104b6565b73ffffffffffffffffffffffffffffffffffffffff16145b8061111357506111128185610e13565b5b91505092915050565b8273ffffffffffffffffffffffffffffffffffffffff1661113c826106d3565b73ffffffffffffffffffffffffffffffffffffffff1614611192576040517f08c379a000000000000000000000000000000000000000000000000000000000815260040161118990612eb6565b60405180910390fd5b600073ffffffffffffffffffffffffffffffffffffffff168273ffffffffffffffffffffffffffffffffffffffff161415611202576040517f08c379a00000000000000000000000000000000000000000000000000000000081526004016111f990612f48565b60405180910390fd5b61120d838383611a83565b611218600082610f85565b6001600360008573ffffffffffffffffffffffffffffffffffffffff1673ffffffffffffffffffffffffffffffffffffffff16815260200190815260200160002060008282546112689190612f68565b925050819055506001600360008473ffffffffffffffffffffffffffffffffffffffff1673ffffffffffffffffffffffffffffffffffffffff16815260200190815260200160002060008282546112bf919061273d565b92505081905550816002600083815260200190815260200160002060006101000a81548173ffffffffffffffffffffffffffffffffffffffff021916908373ffffffffffffffffffffffffffffffffffffffff160217905550808273ffffffffffffffffffffffffffffffffffffffff168473ffffffffffffffffffffffffffffffffffffffff167fddf252ad1be2c89b69c2b068fc378daa952ba7f163c4a11628f55a4df523b3ef60405160405180910390a461137e838383611a88565b505050565b8173ffffffffffffffffffffffffffffffffffffffff168373ffffffffffffffffffffffffffffffffffffffff1614156113f2576040517f08c379a00000000000000000000000000000000000000000000000000000000081526004016113e990612fe8565b60405180910390fd5b80600560008573ffffffffffffffffffffffffffffffffffffffff1673ffffffffffffffffffffffffffffffffffffffff16815260200190815260200160002060008473ffffffffffffffffffffffffffffffffffffffff1673ffffffffffffffffffffffffffffffffffffffff16815260200190815260200160002060006101000a81548160ff0219169083151502179055508173ffffffffffffffffffffffffffffffffffffffff168373ffffffffffffffffffffffffffffffffffffffff167f17307eab39ab6107e8899845ad3d59bd9653f200f220920489ca2b5937696c31836040516114e39190611d8f565b60405180910390a3505050565b6114fb84848461111c565b61150784848484611a8d565b611546576040517f08c379a000000000000000000000000000000000000000000000000000000000815260040161153d9061307a565b60405180910390fd5b50505050565b60606000821415611594576040518060400160405280600181526020017f300000000000000000000000000000000000000000000000000000000000000081525090506116a8565b600082905060005b600082146115c65780806115af906127c2565b915050600a826115bf91906130c9565b915061159c565b60008167ffffffffffffffff8111156115e2576115e1612044565b5b6040519080825280601f01601f1916602001820160405280156116145781602001600182028036833780820191505090505b5090505b600085146116a15760018261162d9190612f68565b9150600a8561163c91906130fa565b6030611648919061273d565b60f81b81838151811061165e5761165d612793565b5b60200101907effffffffffffffffffffffffffffffffffffffffffffffffffffffffffffff1916908160001a905350600a8561169a91906130c9565b9450611618565b8093505050505b919050565b60606000825114156116d05760405180602001604052806000815250905061180c565b600060405180606001604052806040815260200161337960409139905060006003600285516116ff919061273d565b61170991906130c9565b600461171591906126e3565b67ffffffffffffffff81111561172e5761172d612044565b5b6040519080825280601f01601f1916602001820160405280156117605781602001600182028036833780820191505090505b509050600182016020820185865187015b808210156117cc576003820191508151603f8160121c168501518453600184019350603f81600c1c168501518453600184019350603f8160061c168501518453600184019350603f8116850151845360018401935050611771565b50506003865106600181146117e857600281146117fb57611803565b603d6001830353603d6002830353611803565b603d60018303535b50505080925050505b919050565b6001816000016000828254019250508190555050565b600081600001549050919050565b600073ffffffffffffffffffffffffffffffffffffffff168273ffffffffffffffffffffffffffffffffffffffff1614156118a5576040517f08c379a000000000000000000000000000000000000000000000000000000000815260040161189c90613177565b60405180910390fd5b6118ae81610f11565b156118ee576040517f08c379a00000000000000000000000000000000000000000000000000000000081526004016118e5906131e3565b60405180910390fd5b6118fa60008383611a83565b6001600360008473ffffffffffffffffffffffffffffffffffffffff1673ffffffffffffffffffffffffffffffffffffffff168152602001908152602001600020600082825461194a919061273d565b92505081905550816002600083815260200190815260200160002060006101000a81548173ffffffffffffffffffffffffffffffffffffffff021916908373ffffffffffffffffffffffffffffffffffffffff160217905550808273ffffffffffffffffffffffffffffffffffffffff16600073ffffffffffffffffffffffffffffffffffffffff167fddf252ad1be2c89b69c2b068fc378daa952ba7f163c4a11628f55a4df523b3ef60405160405180910390a4611a0b60008383611a88565b5050565b611a1882610f11565b611a57576040517f08c379a0000000000000000000000000000000000000000000000000000000008152600401611a4e90613275565b60405180910390fd5b80600660008481526020019081526020016000209080519060200190611a7e929190611c38565b505050565b505050565b505050565b6000611aae8473ffffffffffffffffffffffffffffffffffffffff16611c15565b15611c08578373ffffffffffffffffffffffffffffffffffffffff1663150b7a02611ad7610f7d565b8786866040518563ffffffff1660e01b8152600401611af994939291906132ea565b6020604051808303816000875af1925050508015611b3557506040513d601f19601f82011682018060405250810190611b32919061334b565b60015b611bb8573d8060008114611b65576040519150601f19603f3d011682016040523d82523d6000602084013e611b6a565b606091505b50600081511415611bb0576040517f08c379a0000000000000000000000000000000000000000000000000000000008152600401611ba79061307a565b60405180910390fd5b805181602001fd5b63150b7a0260e01b7bffffffffffffffffffffffffffffffffffffffffffffffffffffffff1916817bffffffffffffffffffffffffffffffffffffffffffffffffffffffff191614915050611c0d565b600190505b949350505050565b6000808273ffffffffffffffffffffffffffffffffffffffff163b119050919050565b828054611c4490612316565b90600052602060002090601f016020900481019282611c665760008555611cad565b82601f10611c7f57805160ff1916838001178555611cad565b82800160010185558215611cad579182015b82811115611cac578251825591602001919060010190611c91565b5b509050611cba9190611cbe565b5090565b5b80821115611cd7576000816000905550600101611cbf565b5090565b6000604051905090565b600080fd5b600080fd5b60007fffffffff0000000000000000000000000000000000000000000000000000000082169050919050565b611d2481611cef565b8114611d2f57600080fd5b50565b600081359050611d4181611d1b565b92915050565b600060208284031215611d5d57611d5c611ce5565b5b6000611d6b84828501611d32565b91505092915050565b60008115159050919050565b611d8981611d74565b82525050565b6000602082019050611da46000830184611d80565b92915050565b600081519050919050565b600082825260208201905092915050565b60005b83811015611de4578082015181840152602081019050611dc9565b83811115611df3576000848401525b50505050565b6000601f19601f8301169050919050565b6000611e1582611daa565b611e1f8185611db5565b9350611e2f818560208601611dc6565b611e3881611df9565b840191505092915050565b60006020820190508181036000830152611e5d8184611e0a565b905092915050565b6000819050919050565b611e7881611e65565b8114611e8357600080fd5b50565b600081359050611e9581611e6f565b92915050565b600060208284031215611eb157611eb0611ce5565b5b6000611ebf84828501611e86565b91505092915050565b600073ffffffffffffffffffffffffffffffffffffffff82169050919050565b6000611ef382611ec8565b9050919050565b611f0381611ee8565b82525050565b6000602082019050611f1e6000830184611efa565b92915050565b611f2d81611ee8565b8114611f3857600080fd5b50565b600081359050611f4a81611f24565b92915050565b60008060408385031215611f6757611f66611ce5565b5b6000611f7585828601611f3b565b9250506020611f8685828601611e86565b9150509250929050565b600080600060608486031215611fa957611fa8611ce5565b5b6000611fb786828701611f3b565b9350506020611fc886828701611f3b565b9250506040611fd986828701611e86565b9150509250925092565b600060208284031215611ff957611ff8611ce5565b5b600061200784828501611f3b565b91505092915050565b61201981611e65565b82525050565b60006020820190506120346000830184612010565b92915050565b600080fd5b600080fd5b7f4e487b7100000000000000000000000000000000000000000000000000000000600052604160045260246000fd5b61207c82611df9565b810181811067ffffffffffffffff8211171561209b5761209a612044565b5b80604052505050565b60006120ae611cdb565b90506120ba8282612073565b919050565b600067ffffffffffffffff8211156120da576120d9612044565b5b6120e382611df9565b9050602081019050919050565b82818337600083830152505050565b600061211261210d846120bf565b6120a4565b90508281526020810184848401111561212e5761212d61203f565b5b6121398482856120f0565b509392505050565b600082601f8301126121565761215561203a565b5b81356121668482602086016120ff565b91505092915050565b60006020828403121561218557612184611ce5565b5b600082013567ffffffffffffffff8111156121a3576121a2611cea565b5b6121af84828501612141565b91505092915050565b6121c181611d74565b81146121cc57600080fd5b50565b6000813590506121de816121b8565b92915050565b600080604083850312156121fb576121fa611ce5565b5b600061220985828601611f3b565b925050602061221a858286016121cf565b9150509250929050565b6000806000806080858703121561223e5761223d611ce5565b5b600061224c87828801611f3b565b945050602061225d87828801611f3b565b935050604061226e87828801611e86565b925050606085013567ffffffffffffffff81111561228f5761228e611cea565b5b61229b87828801612141565b91505092959194509250565b600080604083850312156122be576122bd611ce5565b5b60006122cc85828601611f3b565b92505060206122dd85828601611f3b565b9150509250929050565b7f4e487b7100000000000000000000000000000000000000000000000000000000600052602260045260246000fd5b6000600282049050600182168061232e57607f821691505b60208210811415612342576123416122e7565b5b50919050565b7f4552433732313a20617070726f76656420717565727920666f72206e6f6e657860008201527f697374656e7420746f6b656e0000000000000000000000000000000000000000602082015250565b60006123a4602c83611db5565b91506123af82612348565b604082019050919050565b600060208201905081810360008301526123d381612397565b9050919050565b7f4552433732313a20617070726f76616c20746f2063757272656e74206f776e6560008201527f7200000000000000000000000000000000000000000000000000000000000000602082015250565b6000612436602183611db5565b9150612441826123da565b604082019050919050565b6000602082019050818103600083015261246581612429565b9050919050565b7f4552433732313a20617070726f76652063616c6c6572206973206e6f74206f7760008201527f6e6572206e6f7220617070726f76656420666f7220616c6c0000000000000000602082015250565b60006124c8603883611db5565b91506124d38261246c565b604082019050919050565b600060208201905081810360008301526124f7816124bb565b9050919050565b7f4552433732313a207472616e736665722063616c6c6572206973206e6f74206f60008201527f776e6572206e6f7220617070726f766564000000000000000000000000000000602082015250565b600061255a603183611db5565b9150612565826124fe565b604082019050919050565b600060208201905081810360008301526125898161254d565b9050919050565b7f4552433732313a206f776e657220717565727920666f72206e6f6e657869737460008201527f656e7420746f6b656e0000000000000000000000000000000000000000000000602082015250565b60006125ec602983611db5565b91506125f782612590565b604082019050919050565b6000602082019050818103600083015261261b816125df565b9050919050565b7f4552433732313a2062616c616e636520717565727920666f7220746865207a6560008201527f726f206164647265737300000000000000000000000000000000000000000000602082015250565b600061267e602a83611db5565b915061268982612622565b604082019050919050565b600060208201905081810360008301526126ad81612671565b9050919050565b7f4e487b7100000000000000000000000000000000000000000000000000000000600052601160045260246000fd5b60006126ee82611e65565b91506126f983611e65565b9250817fffffffffffffffffffffffffffffffffffffffffffffffffffffffffffffffff0483118215151615612732576127316126b4565b5b828202905092915050565b600061274882611e65565b915061275383611e65565b9250827fffffffffffffffffffffffffffffffffffffffffffffffffffffffffffffffff03821115612788576127876126b4565b5b828201905092915050565b7f4e487b7100000000000000000000000000000000000000000000000000000000600052603260045260246000fd5b60006127cd82611e65565b91507fffffffffffffffffffffffffffffffffffffffffffffffffffffffffffffffff821415612800576127ff6126b4565b5b600182019050919050565b600081905092915050565b7f7b226e616d65223a20225a4b55546f6b656e2023000000000000000000000000600082015250565b600061284c60148361280b565b915061285782612816565b601482019050919050565b600061286d82611daa565b612877818561280b565b9350612887818560208601611dc6565b80840191505092915050565b7f2200000000000000000000000000000000000000000000000000000000000000600082015250565b60006128c960018361280b565b91506128d482612893565b600182019050919050565b7f226465736372697074696f6e223a20227468697320746f6b656e20697320617760008201527f65736f6d65220000000000000000000000000000000000000000000000000000602082015250565b600061293b60268361280b565b9150612946826128df565b602682019050919050565b7f7d00000000000000000000000000000000000000000000000000000000000000600082015250565b600061298760018361280b565b915061299282612951565b600182019050919050565b60006129a88261283f565b91506129b48284612862565b91506129bf826128bc565b91506129ca8261292e565b91506129d58261297a565b915081905092915050565b7f646174613a6170706c69636174696f6e2f6a736f6e3b6261736536342c000000600082015250565b6000612a16601d8361280b565b9150612a21826129e0565b601d82019050919050565b6000612a3782612a09565b9150612a438284612862565b915081905092915050565b60008160601b9050919050565b6000612a6682612a4e565b9050919050565b6000612a7882612a5b565b9050919050565b612a90612a8b82611ee8565b612a6d565b82525050565b6000612aa28284612a7f565b60148201915081905092915050565b600060049050919050565b600081905092915050565b6000819050919050565b600082825260208201905092915050565b6000612aed82611daa565b612af78185612ad1565b9350612b07818560208601611dc6565b612b1081611df9565b840191505092915050565b6000612b278383612ae2565b905092915050565b6000602082019050919050565b6000612b4782612ab1565b612b518185612abc565b935083602082028501612b6385612ac7565b8060005b85811015612b9f5784840389528151612b808582612b1b565b9450612b8b83612b2f565b925060208a01995050600181019050612b67565b50829750879550505050505092915050565b60006020820190508181036000830152612bcb8184612b3c565b905092915050565b600067ffffffffffffffff821115612bee57612bed612044565b5b602082029050919050565b600080fd5b6000819050919050565b612c1181612bfe565b8114612c1c57600080fd5b50565b600081519050612c2e81612c08565b92915050565b6000612c47612c4284612bd3565b6120a4565b90508060208402830185811115612c6157612c60612bf9565b5b835b81811015612c8a5780612c768882612c1f565b845260208401935050602081019050612c63565b5050509392505050565b600082601f830112612ca957612ca861203a565b5b6004612cb6848285612c34565b91505092915050565b600060808284031215612cd557612cd4611ce5565b5b6000612ce384828501612c94565b91505092915050565b600060049050919050565b600081905092915050565b6000819050919050565b612d1581612bfe565b82525050565b6000612d278383612d0c565b60208301905092915050565b6000602082019050919050565b612d4981612cec565b612d538184612cf7565b9250612d5e82612d02565b8060005b83811015612d8f578151612d768782612d1b565b9650612d8183612d33565b925050600181019050612d62565b505050505050565b6000608082019050612dac6000830184612d40565b92915050565b7f4552433732313a206f70657261746f7220717565727920666f72206e6f6e657860008201527f697374656e7420746f6b656e0000000000000000000000000000000000000000602082015250565b6000612e0e602c83611db5565b9150612e1982612db2565b604082019050919050565b60006020820190508181036000830152612e3d81612e01565b9050919050565b7f4552433732313a207472616e736665722066726f6d20696e636f72726563742060008201527f6f776e6572000000000000000000000000000000000000000000000000000000602082015250565b6000612ea0602583611db5565b9150612eab82612e44565b604082019050919050565b60006020820190508181036000830152612ecf81612e93565b9050919050565b7f4552433732313a207472616e7366657220746f20746865207a65726f2061646460008201527f7265737300000000000000000000000000000000000000000000000000000000602082015250565b6000612f32602483611db5565b9150612f3d82612ed6565b604082019050919050565b60006020820190508181036000830152612f6181612f25565b9050919050565b6000612f7382611e65565b9150612f7e83611e65565b925082821015612f9157612f906126b4565b5b828203905092915050565b7f4552433732313a20617070726f766520746f2063616c6c657200000000000000600082015250565b6000612fd2601983611db5565b9150612fdd82612f9c565b602082019050919050565b6000602082019050818103600083015261300181612fc5565b9050919050565b7f4552433732313a207472616e7366657220746f206e6f6e20455243373231526560008201527f63656976657220696d706c656d656e7465720000000000000000000000000000602082015250565b6000613064603283611db5565b915061306f82613008565b604082019050919050565b6000602082019050818103600083015261309381613057565b9050919050565b7f4e487b7100000000000000000000000000000000000000000000000000000000600052601260045260246000fd5b60006130d482611e65565b91506130df83611e65565b9250826130ef576130ee61309a565b5b828204905092915050565b600061310582611e65565b915061311083611e65565b9250826131205761311f61309a565b5b828206905092915050565b7f4552433732313a206d696e7420746f20746865207a65726f2061646472657373600082015250565b6000613161602083611db5565b915061316c8261312b565b602082019050919050565b6000602082019050818103600083015261319081613154565b9050919050565b7f4552433732313a20746f6b656e20616c7265616479206d696e74656400000000600082015250565b60006131cd601c83611db5565b91506131d882613197565b602082019050919050565b600060208201905081810360008301526131fc816131c0565b9050919050565b7f45524337323155524953746f726167653a2055524920736574206f66206e6f6e60008201527f6578697374656e7420746f6b656e000000000000000000000000000000000000602082015250565b600061325f602e83611db5565b915061326a82613203565b604082019050919050565b6000602082019050818103600083015261328e81613252565b9050919050565b600081519050919050565b600082825260208201905092915050565b60006132bc82613295565b6132c681856132a0565b93506132d6818560208601611dc6565b6132df81611df9565b840191505092915050565b60006080820190506132ff6000830187611efa565b61330c6020830186611efa565b6133196040830185612010565b818103606083015261332b81846132b1565b905095945050505050565b60008151905061334581611d1b565b92915050565b60006020828403121561336157613360611ce5565b5b600061336f84828501613336565b9150509291505056fe4142434445464748494a4b4c4d4e4f505152535455565758595a6162636465666768696a6b6c6d6e6f707172737475767778797a303132333435363738392b2fa264697066735822122015f10257c917da2ada66d461e488b133cd8daf357c309991b6068d7ad73da8e164736f6c634300080a0033",
  "linkReferences": {},
  "deployedLinkReferences": {}
}